:100000000C9472000C949A000C949A000C949A0030
:100010000C949A000C949A000C949A000C949A00F8
:100020000C949A000C949A000C949A000C949A00E8
:100030000C949A000C949A000C949A000C949A00D8
:100040000C94B5020C949A000C9405020C94DF01F8
:100050000C949A000C949A000C949A000C949A00B8
:100060000C94A1030C949A00005EBCE2613FDD8316
:10007000C29C7E20A3FD1F41009D23BE46DB65F888
:100080008C11AF32CA57E974000000080002010069
:100090000003040700000000000000000000000052
:1000A000250028002B0000000000240027002A0063
:1000B00000000000230026002900040404040404B6
:1000C0000404020202020202030303030303010207
:1000D00004081020408001020408102001020408D6
:1000E0001020120C11241FBECFEFD8E0DEBFCDBF11
:1000F00022E0A2E5B1E001C01D92A33EB207E1F704
:1001000011E0A0E0B1E0ECE5F2E202C005900D9252
:10011000A235B107D9F710E0C2E7D0E004C02197BB
:10012000FE010E94210FC137D107C9F70E941D07A8
:100130000C942C110C940000FC01538D448D252F40
:1001400030E0842F90E0821B930B541710F0CF9671
:10015000089501970895FC01918D828D981761F0A3
:10016000828DDF01A80FB11D5D968C91928D9F5FEE
:100170009F73928F90E008958FEF9FEF0895FC0199
:10018000918D828D981731F0828DE80FF11D858D4C
:1001900090E008958FEF9FEF0895FC01918D228DDF
:1001A000892F90E0805C9F4F821B91098F73992764
:1001B00008958CEC91E00E94CD0021E0892B09F498
:1001C00020E0822F0895FC01848DDF01A80FB11D6E
:1001D000A35ABF4F2C91848D90E001968F7399277D
:1001E000848FA689B7892C93A089B1898C9183705B
:1001F00080648C93938D848D981306C00288F38954
:10020000E02D80818F7D80830895EF92FF920F9380
:100210001F93CF93DF93EC0181E0888F9B8D8C8DB2
:10022000981305C0E889F989808185FD26C0F62EDE
:100230000B8D10E00F5F1F4F0F731127E02E8C8D79
:10024000E8120CC00FB607FCFACFE889F989808163
:1002500085FFF5CFCE010E94E300F1CF8B8DFE012B
:10026000E80FF11DE35AFF4FF0829FB7F8940B8F10
:10027000EA89FB89808180620AC09FB7F894EE8981
:10028000FF896083E889F989808183708064808335
:100290009FBF81E090E0DF91CF911F910F91FF9080
:1002A000EF900895CF93DF93EC01888D8823C9F0F8
:1002B000EA89FB89808185FD05C0A889B9898C916F
:1002C00086FD0FC00FB607FCF5CF808185FFF2CF0A
:1002D000A889B9898C9185FFEDCFCE010E94E300FA
:1002E000E7CFDF91CF91089580E090E0892B29F04E
:1002F0000E94D90081110C940000089585ED80932F
:10030000BC008091BC0084FDFCCF10929D0108953B
:1003100040917901262F30E0240F311D2132310523
:10032000DCF420919D012430C9F4FC0180E090E0D0
:10033000861758F4309179012191DC01A75ABE4FFC
:10034000A30FB11D2C930196F3CF80917901680F13
:100350006093790180E0089581E0089582E0089536
:1003600008958FEF9FEF08958FEF9FEF089580918D
:10037000580190E09195819591090895CF93DF936D
:10038000CB01EA01642F0E948801CE01DF91CF9159
:100390000895CF93DF931F92CDB7DEB7698361E0F5
:1003A000CE0101960E94880181E090E00F90DF91DC
:1003B000CF91089580E090E008950E940E111F9261
:1003C0000F920FB60F9211242F933F934F935F9389
:1003D0006F937F938F939F93AF93BF93EF93FF930D
:1003E0008CEC91E00E94E300FF91EF91BF91AF91FF
:1003F0009F918F917F916F915F914F913F912F913D
:100400000F900FBE0F901F9018951F920F920FB66E
:100410000F9211242F938F939F93EF93FF93E0916B
:10042000DC01F091DD018081E091E201F091E301D6
:1004300082FD12C090818091E5018F5F8F732091C2
:10044000E601821751F0E091E501F0E0E453FE4F40
:10045000958F8093E50101C08081FF91EF919F917D
:100460008F912F910F900FBE0F901F90189590E0D5
:10047000FC01E857FF4F2491FC01E253FF4F3491F8
:10048000FC01E654FF4FE491EE2309F43CC0222323
:1004900039F1233091F038F42130A9F0223001F500
:1004A00084B58F7D12C0273091F02830A1F0243020
:1004B000B9F4809180008F7D03C0809180008F7798
:1004C000809380000DC084B58F7784BD09C0809172
:1004D000B0008F7703C08091B0008F7D8093B00013
:1004E000F0E0EE0FFF1FE456FF4FA591B4919FB7C8
:1004F000F894611104C08C913095382302C0EC91BE
:100500003E2B3C939FBF08953FB7F8948091C8015C
:100510009091C901A091CA01B091CB0126B5A89BC9
:1005200005C02F3F19F00196A11DB11D3FBFBA2F85
:10053000A92F982F8827820F911DA11DB11DBC01E5
:10054000CD0142E0660F771F881F991F4A95D1F7AA
:1005500008952FB7F8946091C4017091C5018091FE
:10056000C6019091C7012FBF08951F920F920FB639
:100570000F9211242F933F938F939F93AF93BF9329
:100580008091C4019091C501A091C601B091C701AD
:100590003091C30123E0230F2D3720F40196A11DD4
:1005A000B11D05C026E8230F0296A11DB11D2093A1
:1005B000C3018093C4019093C501A093C601B09379
:1005C000C7018091C8019091C901A091CA01B09161
:1005D000CB010196A11DB11D8093C8019093C90163
:1005E000A093CA01B093CB01BF91AF919F918F911E
:1005F0003F912F910F900FBE0F901F901895DC0127
:1006000080E0615098F02D91982F9227E92FEF709C
:10061000F0E0E859FF4F249192959F70E92FF0E0A8
:10062000E858FF4FE491822F8E27EBCF0895FC010D
:1006300090810180F281E02DF8948181892B818362
:100640002281892F809528232283A7E0B0E011978B
:10065000F1F7218182238183A3E2B0E01197F1F7C2
:1006600080817894EFECF0E03197F1F7982381E006
:1006700009F480E00895FC0190810180F281E02D71
:10068000892F809560FF12C0F89422818223828393
:100690008181892B8183A3E2B0E01197F1F78281F8
:1006A000982B9283789487ED90E011C0F894228182
:1006B000822382838181892B8183AFEFB0E0119700
:1006C000F1F78281982B928378948FE090E00197E4
:1006D000F1F70895DC012C911196ED91FC911297A0
:1006E000F8948181922F90958923818378948DE766
:1006F00043E050E0815021F1DA011197F1F73081A8
:100700003223C1F3F8948281892382838181822BF1
:1007100081837894ABE7B7E01197F1F7F894818182
:100720009823918383E191E00197F1F78081282359
:1007300081E009F080E07894E3E6F6E03197F1F7A4
:1007400008951F920F920FB60F9211242F933F938B
:100750004F935F936F937F938F939F93AF93BF93C9
:10076000EF93FF938091B900887F803609F49CC095
:1007700068F5883209F45BC090F4803109F454C004
:1007800038F4882309F4F2C0883009F44DC0F2C06F
:10079000883109F44CC0803209F45DC0EBC080346C
:1007A00009F468C048F4803309F455C0883309F06F
:1007B000E1C080939C01D4C0803509F44FC08835D6
:1007C00009F45DC0883409F0D5C0D2C0883909F475
:1007D000C3C0A8F4883709F467C038F4883609F430
:1007E00063C0803709F460C0C5C0883809F4B4C05C
:1007F000803909F45FC0803809F0BCC05BC0803B21
:1008000009F484C038F4803A09F466C0883A09F4DF
:100810007DC0B0C0803C09F4A3C0883C09F4A0C0EE
:10082000883B09F486C0A6C08091C20110C0909197
:10083000C1018091C001981770F5E091C10181E07C
:100840008E0F8093C101F0E0E056FE4F80818093CF
:10085000BB0085EC82C080939C018AC0E091C101FD
:1008600081E08E0F8093C1018091BB00F0E0E056E3
:10087000FE4F80839091C1018091C0016AC0E091D8
:10088000C10181E08E0F8093C1018091BB00F0E037
:10089000E056FE4F808380919F01811169C081E005
:1008A00080939E0184EA5DC083E080939D01109255
:1008B0009B01CFCF80919B01803208F04DC0E09129
:1008C0009B0181E08E0F80939B018091BB00F0E043
:1008D000E558FE4F8083BDCF85EC8093BC0010921D
:1008E0009D0180919B01803230F4E0919B01F0E00A
:1008F000E558FE4F108260919B0170E08BE791E01C
:10090000E0E0F0E0099510929B0134C084E0809310
:100910009D0110927A0110927901E0E0F0E00995D2
:1009200080917901811105C081E080937901109255
:100930005901E0917A0181E08E0F80937A01F0E015
:10094000E75AFE4F80818093BB0090917A0180919D
:100950007901981708F47DCF85E88093BC000AC020
:1009600085EC8093BC0010929D0104C010929C0104
:100970000E947E01FF91EF91BF91AF919F918F9166
:100980007F916F915F914F913F912F910F900FBE8B
:100990000F901F9018950895CF92DF92EF92FF92DB
:1009A0000F931F93CF93DF936C017A018B01C0E00B
:1009B000D0E0CE15DF0581F0D8016D918D01D60113
:1009C000ED91FC910190F081E02DC6010995892BF4
:1009D00011F02196EECF7E01C701DF91CF911F91DB
:1009E0000F91FF90EF90DF90CF9008950F931F939A
:1009F0000E94A9026093D4017093D5018093D6011F
:100A00009093D7018CEC91E00E94BF0097FF1FC02C
:100A10000E94A9020091D4011091D5012091D60124
:100A20003091D701DC01CB01801B910BA20BB30BE2
:100A30000091D0011091D1012091D2013091D301C8
:100A400080179107A207B307E8F28FEF9FEF1F917E
:100A50000F9108958F929F92AF92BF92CF92DF92A3
:100A6000EF92FF920E9484024B015C018DE7C82E39
:100A7000D12CE12CF12C0E948402DC01CB018819DD
:100A80009909AA09BB09883E9340A105B10598F3CD
:100A900021E0C21AD108E108F10888EE880E83E04F
:100AA000981EA11CB11CC114D104E104F10419F772
:100AB000FF90EF90DF90CF90BF90AF909F908F907E
:100AC0000895EF92FF920F931F93CF93DF93EC0162
:100AD000E62E08E010E0FF24F39461E08E2D8F21D4
:100AE00009F460E0CE010E943B03FF0C01501109A4
:100AF000A1F7F894E981FA81918188818095892311
:100B00008183E981FA81928188818095892382831A
:100B10007894DF91CF911F910F91FF90EF900895FE
:100B20000F931F93CF93DF938C01EB01FC01808126
:100B30009181009739F06881798161157105A1F47F
:100B40000E94BF0F88819981F801918380838A81F7
:100B50009B81938382838C819D8195838483198279
:100B600018821B821A820FC0F801428153812C81A6
:100B70003D814217530720F30E9425118C819D81EE
:100B8000F801958384831D821C82DF91CF911F9190
:100B90000F9108950F931F930E94A9026093D401AF
:100BA0007093D5018093D6019093D7018CEC91E09E
:100BB0000E94AB0097FF1FC00E94A9020091D401C0
:100BC0001091D5012091D6013091D701DC01CB01E4
:100BD000801B910BA20BB30B0091D0011091D1019E
:100BE0002091D2013091D30180179107A207B3075A
:100BF000E8F28FEF9FEF1F910F9108950F931F93CE
:100C0000CF93DF93EC0188819981009729F02A81A5
:100C10003B812617370788F48B016F5F7F4F0E9457
:100C20004810009761F0998388831B830A832C8185
:100C30003D81232B11F4FC01108281E001C080E092
:100C4000DF91CF911F910F910895CF93DF93EC0126
:100C500088819981009711F00E94BF0F1982188234
:100C60001D821C821B821A82DF91CF910895EF9220
:100C7000FF920F931F93CF93DF93EC017B018A01C7
:100C8000BA010E94FE05811104C0CE010E94250612
:100C900007C01D830C83B701888199810E942511AB
:100CA000CE01DF91CF911F910F91FF90EF900895AA
:100CB000FC0111821082138212821582148240E09C
:100CC00050E06BE371E00C943706AF92BF92CF9285
:100CD000DF92EF92FF920F931F93CF93DF936C01FC
:100CE0005B01EA0179012417350720F48D2FE90112
:100CF000E42EF82EC6010E945806D50114960D91D7
:100D00001C911597C017D10748F5E016F10608F4B5
:100D10008701D501ED91FC911197E00FF11FF08053
:100D200010826D917C916C0F7D1F6115710561F0D2
:100D3000FB0101900020E9F73197AF01461B570BEB
:100D4000C6010E94370603C0C6010E942506F501B0
:100D500080819181FC01E00FF11FF082C601DF91DB
:100D6000CF911F910F91FF90EF90DF90CF90BF90A8
:100D7000AF900895FC01808191810C94BF0F6115A3
:100D8000710579F0FB0101900020E9F73197AF017F
:100D9000461B570BDC01ED91FC910280F381E02DA5
:100DA000099480E090E008958F929F92AF92BF9255
:100DB000EF92FF920F931F93CF93DF93CDB7DEB7E0
:100DC000A1970FB6F894DEBF0FBECDBF7C01FA012C
:100DD000CB0119A2223008F42AE08E010F5D1F4FCB
:100DE000822E912CA12CB12CBF01A50194010E944F
:100DF000500EF901CA01015011096A3014F4605D06
:100E000001C0695CD8016C93232B242B252B61F73F
:100E1000B801C7010E94BF06A1960FB6F894DEBFC5
:100E20000FBECDBFDF91CF911F910F91FF90EF903B
:100E3000BF90AF909F908F900895CF93DF93CDB7E1
:100E4000DEB7AE970FB6F894DEBF0FBECDBF789475
:100E500084B5826084BD84B5816084BD85B58260BF
:100E600085BD85B5816085BD80916E008160809370
:100E70006E001092810080918100826080938100D9
:100E800080918100816080938100809180008160E9
:100E9000809380008091B10084608093B100809144
:100EA000B00081608093B00080917A00846080936C
:100EB0007A0080917A00826080937A0080917A0033
:100EC000816080937A0080917A00806880937A00B4
:100ED0001092C1001092AD021092AE021092AF02B9
:100EE0001092B00210926B0210926C0210926D027E
:100EF00010926E020E94A9026B017C014B015C0101
:100F000028EB820E2BE0921EA11CB11C0E94A902AC
:100F10006C157D058E059F0528F086169706A80698
:100F2000B906A0F78CEC91E09093AC028093AB02F1
:100F3000E091DC01F091DD0182E08083E091D80155
:100F4000F091D9011082E091DA01F091DB0180E1AA
:100F500080831092E401E091E001F091E10186E0EC
:100F60008083E091DE01F091DF01808180618083E8
:100F7000E091DE01F091DF01808188608083E09163
:100F8000DE01F091DF01808180688083E091DE01E5
:100F9000F091DF0180818F7D80830E94A9026093A0
:100FA0006B0270936C0280936D0290936E026AE202
:100FB00071E08091AB029091AC020E94BF060E944A
:100FC000A9026B017C014B015C014AE0840E911C7B
:100FD000A11CB11C0E94A9026C157D058E059F0500
:100FE00028F086169706A806B906A0F781E0809338
:100FF0007F0203E010E0802FF801E253FF4F94914D
:10100000F801E654FF4F2491222399F030E0220F9B
:10101000331FF901EA55FF4FA591B491F901E45648
:10102000FF4F259134912FB7F894EC91E92BEC9375
:101030002FBF60E00E9437020F5F1F4F0B3011057A
:10104000D1F6E091DC01F091DD0182E08083E09156
:10105000D801F091D9011082E091DA01F091DB0121
:101060008FEC80831092E401E091E001F091E101C6
:1010700086E08083E091DE01F091DF018081806174
:101080008083E091DE01F091DF01808188608083C0
:10109000E091DE01F091DF01808180688083E09142
:1010A000DE01F091DF0180818F7D808301E010E01F
:1010B0008091520190915301892B49F561E08DE0B7
:1010C0000E9437020E942A0560E08DE00E943702EC
:1010D0000E942A050E94F604FC0197FD0DC08D3286
:1010E000910509F448C3C0970A9708F444C38CECEF
:1010F00091E00E94AB00EECFC12CD12C7601CA94B6
:10110000CD28B1F61093530100935201D1CF6E0157
:101110009BE1C90ED11CDE0111967D01E0E42E2E6B
:10112000FE013A96FEA7EDA70E94A902672B682B45
:10113000692B41F40E94A902623071058105910575
:1011400008F413C10E94A9020091540110915501A5
:10115000209156013091570160177107820793075C
:1011600040F460935401709355018093560190931D
:101170005701009154011091550120915601309171
:1011800057014B015C01801A910AA20AB30A95012A
:1011900084010A3F11052105310508F4E6C060937A
:1011A000540170935501809356019093570184EF39
:1011B00091E0A0E0B0E08093770290937802A09352
:1011C0007902B0937A0210927B0210927C02109204
:1011D0007D0210927E0280916F0290917002A09128
:1011E0007102B09172028093730290937402A09383
:1011F0007502B09376020E94A90260936F02709309
:10120000700280937102909372020E94A90260930F
:101210006B0270936C0280936D0290936E020E9439
:10122000A9024B015C016CE371E08091AB029091EB
:10123000AC020E94BF062AE041E050E060E070E0AE
:101240008091AB029091AC020E94D40663E471E0FD
:101250008091AB029091AC020E94BF062AE0B501DA
:10126000A4018091AB029091AC020E94D40665E487
:1012700071E08091AB029091AC020E94BF06809118
:101280006F0290917002A0917102B0917202B5014B
:10129000A401481B590B6A0B7B0B2AE08091AB021F
:1012A0009091AC020E94D40665E471E08091AB029B
:1012B0009091AC020E94BF0640916F025091700263
:1012C0006091710270917202809173029091740228
:1012D000A0917502B0917602481B590B6A0B7B0BEB
:1012E0002AE08091AB029091AC020E94D40667E4A0
:1012F00071E08091AB029091AC020E94BF060E9407
:10130000A902AB01BC012AE08091AB029091AC0232
:101310000E94D4060091AB021091AC0269E471E026
:10132000C8010E94BF0669E371E0C8010E94BF06C0
:101330000E94A9024B015C012B013C0195E0490E82
:10134000511C611C711C0E94A902681579058A054F
:101350009B0508F04DC20E94A90260936F02709332
:1013600070028093710290937202CE0187960E9460
:101370005806CE0181960E945806C6010E94580662
:101380008CEC91E00E94CD00892B09F4E6C1C701E5
:101390000E9458060E94CA0597FD1AC08B8B1C8AB2
:1013A0000D811E810F5F1F4FB801C7010E94FE050E
:1013B000882381F329813A818D819E81BE016D5EF2
:1013C0007F4F820F931F0E9425111E830D83E2CF52
:1013D000B701CE0187960E949005C7010E94BA0608
:1013E00021E030E040E050E0BE01695D7F4FC70181
:1013F0000E946506B701CE0181960E949005C70143
:101400000E94BA062BA53CA541E050E0BE01695DF3
:101410007F4FC7010E946506B701C6010E94900573
:10142000C7010E94BA0689A19AA1009729F00E94DB
:10143000E40C4B015C0103C0812C912C54018F8D75
:1014400098A1892B09F489C10B8D1C8D60E571E091
:10145000C8010E941C11D8012C91222309F47DC1DE
:10146000B4E08B16910479F12CF4F3E08F1691041B
:1014700009F173C125E08216910461F146E08416FA
:10148000910409F06AC10091B7021091B802D80125
:101490001B961C921B971D961C921D971C961C92C6
:1014A0002801BBE04B0E511C5801E3E0AE0EB11C0D
:1014B000F20117C0892B11F461E001C060E083E004
:1014C0000E9437024AC1892B11F461E001C060E03B
:1014D00084E0F6CF892B11F461E001C060E085E083
:1014E000EFCF1292AE16BF06E1F7C8010E946A0361
:1014F000882309F484C160EFC8010E946105882433
:101500008394612C312C99249394C8010E94170371
:10151000782EC8010E941703B1E07B1203C081300E
:10152000C9F438C0262D30E078121EC0F80183853A
:10153000981630F4E20FF31F8381882159F402C01A
:10154000891541F0712CF8E0F91568F0D8011C9666
:101550009C9209C0F801E60DF11D838188298383DF
:101560007724739409C0392CF801E20FF31F93819B
:10157000882D809589238383672DC8010E943B03B2
:101580009394880C19F4639488248394B7E0B61577
:1015900008F0BBCFE0E4E91508F031C1D8011B9693
:1015A0003C921B97311003C0E1E01D96EC93F801CB
:1015B0008381882309F423C18E010D5E1F4FF8013A
:1015C000D5018D915D0181934A165B06C9F767E0ED
:1015D000C8010E94FF029A8D89131AC18091B70237
:1015E0009091B8020E946A03882309F418C1A09060
:1015F000B702B090B80265E5C5010E946105F80127
:1016000061918F01C5010E946105C016D106B9F72D
:101610006EEB8091B7029091B8020E94610587013C
:101620008090B7029090B80278E0A72EB12C712C70
:1016300066246394C4010E94170381117628660C06
:10164000F1E0AF1AB108B1F7D8017D928D018DA4F8
:101650009EA48A169B0621F78091B7029091B8024A
:101660000E946A03813009F0DAC068E0C7010E9475
:10167000FF0299858913D3C02A8130E0C901982FD0
:101680008827990F990F990F698128E0629FB0010F
:1016900011249C01262B372B8B89803109F0BDC08A
:1016A000688570E08F81AB01481B5109CA0196958E
:1016B000982F8827979587950E94F90E6051710998
:1016C000207F53E0220F331F5A95E1F7620F731FFB
:1016D000613854EE75070CF49BC0072E000C880B84
:1016E000990B0E94570D20E030E040E05CE30E943F
:1016F000920D0E94C30EDC01CB0120927C00209150
:101700007A00206420937A0020917A0026FDFCCF95
:1017100020917800209179001C8A1B8A1E8A1D8ADC
:10172000188E1F8A4AE0B7010E940B0DF701019045
:101730000020E9F73197AF014E195F09B701CE01DB
:1017400043960E94370669E371E08CEC91E00E94B9
:10175000BF06CE0143960E94BA06C6010E94BA0691
:10176000CE0181960E94BA06CE0187960E94BA06E3
:101770000E947401D9CCC12CD12C7601B12CE1305E
:10178000F105E9F0ED32F105C1F0CF01C0970A97FC
:10179000B0F4AAE0B0E0A70196010E94720E6F01BA
:1017A000FF0FEE08FF08C60ED71EE81EF91E50E315
:1017B000C51AD108E108F10802C0BB24B3948CEC2F
:1017C00091E00E94AB000E94F604FC01C0970A97CA
:1017D000B0F2E130F10599F2BB2009F490CCF0941D
:1017E000E094D094C094C11CD11CE11CF11C87CCA6
:1017F000461657066806790608F0A5CDACCDD80187
:101800001B961C921B971D961C921D971C961C9252
:1018100060E070E08EEF92EC6CCFB90159CF60E8D8
:1018200074EE56CFCF93DF931092CF011092CE017A
:1018300088EE93E0A0E0B0E08093D0019093D101D6
:10184000A093D201B093D3012AE031E03093CD01CF
:101850002093CC0125EC30E03093D9012093D801BE
:1018600024EC30E03093DB012093DA0120EC30E00F
:101870003093DD012093DC0121EC30E03093DF0177
:101880002093DE0122EC30E03093E1012093E0016F
:1018900026EC30E03093E3012093E2011092E50161
:1018A0001092E6011092E7011092E80110926F0287
:1018B00010927002109271021092720210927302D2
:1018C00010927402109275021092760210927702B2
:1018D000109278021092790210927A0210927B0292
:1018E00010927C0210927D0210927E021092C80229
:1018F0001092C7028093C9029093CA02A093CB02B0
:10190000B093CC028CE191E09093C6028093C50223
:10191000E7EDF0E02491E3ECF0E084918823C1F05E
:1019200090E0880F991FFC01EA55FF4FC591D491B3
:10193000FC01E456FF4FA591B4919FB7F8948881BC
:10194000E22FE0958E2388838C91E823EC939FBF50
:10195000E7EDF0E0E491E093D102E3ECF0E0E49114
:10196000F0E0EE0FFF1FE055FF4F859194919093AB
:10197000D3028093D2021092DC021092DE02109207
:10198000DD02ECEDF2E084ED92E012928E179F07FB
:10199000E1F781ED92E09093B8028093B702109244
:1019A000B5021092B6021092B10289E08093B202A1
:1019B00081E08093B3028093B4021092C40210922B
:1019C000C302DF91CF9108951F93FC0199278827C7
:1019D000BC01E89411911032E9F3193010F01E3077
:1019E000C8F31B3251F01D3249F4689406C00E94BE
:1019F000160D610F711D811D911D119110531A302B
:101A0000B0F33EF490958095709561957F4F8F4F20
:101A10009F4F1F910895BB274A3031F4992322F438
:101A2000BDE2909581959F4F0C942C0D592F482F16
:101A3000372F262F660F771F881F991F660F771F76
:101A4000881F991F620F731F841F951F660F771FD2
:101A5000881F991F0895BB27FB015527AA27880FC8
:101A6000991FAA1FA41710F0A41B83955051B9F712
:101A7000A05DAA3308F0A95DA193009779F7B11191
:101A8000B1931192CB010C94450DDC01FC01672F41
:101A900071917723E1F7329704C07C916D93708345
:101AA0006291AE17BF07C8F30895E89409C097FB89
:101AB0003EF490958095709561957F4F8F4F9F4F25
:101AC0009923A9F0F92F96E9BB279395F695879569
:101AD00077956795B795F111F8CFFAF4BB0F11F42C
:101AE00060FF1BC06F5F7F4F8F4F9F4F16C08823D3
:101AF00011F096E911C0772321F09EE8872F762F09
:101B000005C0662371F096E8862F70E060E02AF049
:101B10009A95660F771F881FDAF7880F9695879535
:101B200097F908950E94A50D0C94160E0E94080EB8
:101B300038F00E940F0E20F0952311F00C94FF0D49
:101B40000C94050E11240C944A0E0E94270E70F37B
:101B5000959FC1F3950F50E0551F629FF001729F52
:101B6000BB27F00DB11D639FAA27F00DB11DAA1F61
:101B7000649F6627B00DA11D661F829F2227B00DAE
:101B8000A11D621F739FB00DA11D621F839FA00D39
:101B9000611D221F749F3327A00D611D231F849F89
:101BA000600D211D822F762F6A2F11249F575040E0
:101BB0009AF0F1F088234AF0EE0FFF1FBB1F661F5B
:101BC000771F881F91505040A9F79E3F510580F024
:101BD0000C94FF0D0C944A0E5F3FE4F3983ED4F34F
:101BE000869577956795B795F795E7959F5FC1F7C8
:101BF000FE2B880F911D9695879597F9089597F973
:101C00009F6780E870E060E008959FEF80EC0895A2
:101C100000240A94161617061806090608950024CB
:101C20000A9412161306140605060895092E039445
:101C3000000C11F4882352F0BB0F40F4BF2B11F4B9
:101C400060FF04C06F5F7F4F8F4F9F4F089557FD18
:101C50009058440F551F59F05F3F71F04795880F1A
:101C600097FB991F61F09F3F79F0879508951216B1
:101C700013061406551FF2CF4695F1DF08C016165D
:101C800017061806991FF1CF86957105610508940E
:101C90000895E894BB2766277727CB0197F9089525
:101CA000A1E21A2EAA1BBB1BFD010DC0AA1FBB1F60
:101CB000EE1FFF1FA217B307E407F50720F0A21BD2
:101CC000B30BE40BF50B661F771F881F991F1A943F
:101CD00069F760957095809590959B01AC01BD0169
:101CE000CF0108950E94B40EA59F900DB49F900D52
:101CF000A49F800D911D112408952F923F924F9221
:101D00005F926F927F928F929F92AF92BF92CF928B
:101D1000DF92EF92FF920F931F93CF93DF93CDB794
:101D2000DEB7CA1BDB0B0FB6F894DEBF0FBECDBF0C
:101D300009942A88398848885F846E847D848C84DD
:101D40009B84AA84B984C884DF80EE80FD800C81E6
:101D50001B81AA81B981CE0FD11D0FB6F894DEBFC9
:101D60000FBECDBFED010895A29FB001B39FC0018A
:101D7000A39F700D811D1124911DB29F700D811DB7
:101D80001124911D08950E94CA0E6894B1110C94FB
:101D90004A0E08950E942F0E88F09F5798F0B92F91
:101DA0009927B751B0F0E1F0660F771F881F991F90
:101DB0001AF0BA95C9F714C0B13091F00E94490EDB
:101DC000B1E008950C94490E672F782F8827B85FEB
:101DD00039F0B93FCCF3869577956795B395D9F7E8
:101DE0003EF490958095709561957F4F8F4F9F4FF2
:101DF000089597FB072E16F4009407D077FD09D0BD
:101E00000E940D0F07FC05D03EF4909581959F4FE1
:101E10000895709561957F4F0895AA1BBB1B51E1F2
:101E200007C0AA1FBB1FA617B70710F0A61BB70B4A
:101E3000881F991F5A95A9F780959095BC01CD01EF
:101E40000895EE0FFF1F0590F491E02D09940F9374
:101E50001F93CF93DF938230910510F482E090E0DE
:101E6000E091E102F091E20220E030E0A0E0B0E099
:101E7000309719F140815181028113814817590728
:101E8000C8F08417950769F4109731F012960C93F7
:101E9000129713961C9327C00093E1021093E2025D
:101EA00022C02115310519F04217530718F49A0181
:101EB000BD01EF01DF01F801DBCF21153105F9F09C
:101EC000281B390B2430310580F48A819B816115F0
:101ED000710521F0FB019383828304C09093E20299
:101EE0008093E102FE01329644C0FE01E20FF31F2F
:101EF0008193919322503109398328833AC02091EC
:101F0000DF023091E002232B41F420910201309155
:101F100003013093E0022093DF0220910001309111
:101F200001012115310541F42DB73EB7409104015F
:101F300050910501241B350BE091DF02F091E00286
:101F4000E217F307A0F42E1B3F0B2817390778F090
:101F5000AC014E5F5F4F2417350748F04E0F5F1FEF
:101F60005093E0024093DF028193919302C0E0E03E
:101F7000F0E0CF01DF91CF911F910F910895CF93A2
:101F8000DF93009709F481C0FC013297138212821B
:101F9000A091E102B091E202109781F42081318199
:101FA000820F931F2091DF023091E002281739073A
:101FB00051F5F093E002E093DF0267C0ED0120E00D
:101FC00030E0CE17DF0740F44A815B819E01411566
:101FD0005105F1F0EA01F5CFD383C28340815181ED
:101FE000840F951FC817D90759F488819981840FE8
:101FF000951F0296918380838A819B81938382833C
:102000002115310529F4F093E202E093E1023DC08D
:10201000E901FB83EA8349915991C40FD51FEC175D
:10202000FD0761F480819181840F951F0296E9017B
:1020300099838883828193819B838A83E0E0F0E0A7
:1020400012968D919C911397009719F0FD01DC0178
:10205000F7CF8D919C9111979D012E5F3F4F820F7D
:10206000931F2091DF023091E0022817390769F4AD
:10207000309729F41092E2021092E10202C013821A
:102080001282B093E002A093DF02DF91CF91089516
:10209000A0E0B0E0EEE4F0E10C94810EEC010097DA
:1020A00021F4CB010E94270FB4C0FC01E60FF71FFB
:1020B0009C0122503109E217F30708F4A8C0D901A6
:1020C0000D911C91119706171707B0F005301105F7
:1020D00008F49BC0C80104978617970708F495C0B9
:1020E00002501109061B170B019311936D937C93FA
:1020F000CF010E94BF0F89C05B01A01AB10A4C0139
:10210000800E911EA091E102B091E202612C712C2F
:10211000E12CF12C109709F446C08D919C911197F8
:10212000A815B905B1F56C0142E0C40ED11CCA1462
:10213000DB0478F14C018A189B08640142E0C40E6C
:10214000D11C1296BC9012971396AC91B5E0CB16A9
:10215000D10440F0B282A38391828082D9016D9331
:102160007C9309C00E5F1F4F800F911FF90191836F
:102170008083EB2DFA2FE114F10431F0D70113968F
:10218000FC93EE93129741C0F093E202E093E102D8
:102190003CC06816790608F43C017D0112960D904A
:1021A000BC91A02DB7CF8091DF029091E0028816FC
:1021B0009906E1F466167706C8F4809100019091C3
:1021C0000101009741F48DB79EB7409104015091F1
:1021D0000501841B950BE817F907C8F4F093E0029A
:1021E000E093DF02F901718360830FC0CB010E948D
:1021F000270F7C01009759F0A801BE010E9413111E
:10220000CE010E94BF0FC70104C0CE0102C080E012
:1022100090E0CDB7DEB7EEE00C949D0E81E090E04B
:10222000F8940C942C11FB01DC0102C001900D927A
:1022300041505040D8F70895FB01DC018D91019089
:1022400080190110D9F3990B0895FB01DC0101906D
:0C2250000D920020E1F70895F894FFCFF4
:10225C000000E3028000000000000501CC049C009B
:10226C005201CD00AB00BF0000000000C901BE014F
:10227C00DA01B001B701B401B101564D4450565FBB
:10228C00317C315F564D4450560D0A00564D44502A
:10229C00455F003A323A007C005F564D4450450091
:0222AC003100FF
:00000001FF
