:100000000C9462000C948A000C948A000C948A0070
:100010000C948A000C948A000C948A000C948A0038
:100020000C948A000C948A000C948A000C948A0028
:100030000C948A000C948A000C948A000C948A0018
:100040000C9441050C948A000C940F050C94E9045F
:100050000C948A000C948A000C948A000C948A00F8
:100060000C948B050C948A0000000008000201002B
:100070000003040700000000000000000000000072
:10008000250028002B0000000000240027002A0083
:1000900000000000230026002900040404040404D6
:1000A0000404020202020202030303030303010227
:1000B00004081020408001020408102001020408F6
:1000C0001020B90611241FBECFEFD8E0DEBFCDBF90
:1000D00022E0A2E3B1E001C01D92AB37B207E1F725
:1000E00011E0A0E0B1E0E0EEF8E102C005900D9271
:1000F000A233B107D9F710E0C2E6D0E004C02197DF
:10010000FE010E94530AC136D107C9F70E946A074F
:100110000C946E0C0C9400000895CF92DF92EF9235
:10012000FF920F931F93CF93DF936C017A018B01A2
:10013000C0E0D0E0CE15DF0589F0D8016D918D01CA
:10014000D601ED91FC910190F081E02DC601099559
:10015000892B11F47E0102C02196ECCFC701DF91FB
:10016000CF911F910F91FF90EF90DF90CF90089566
:10017000FC01538D448D252F30E0842F90E0821BAD
:10018000930B541710F0CF96089501970895FC0132
:10019000918D828D981761F0828DDF01A80FB11DBE
:1001A0005D968C91928D9F5F9F73928F90E00895E2
:1001B0008FEF9FEF0895FC01918D828D981731F09C
:1001C000828DE80FF11D858D90E008958FEF9FEFF0
:1001D0000895FC01918D228D892F90E0805C9F4FC6
:1001E000821B91098F73992708958CEA91E00E94F0
:1001F000E90021E0892B09F420E0822F0895FC0119
:10020000848DDF01A80FB11DA35ABF4F2C91848D9F
:1002100090E001968F739927848FA689B7892C93D4
:10022000A089B1898C9180648C93938D848D98136F
:1002300006C00288F389E02D80818F7D8083089538
:10024000EF92FF920F931F93CF93DF93EC0181E026
:10025000888F9B8D8C8D981305C0E889F9898081E2
:1002600085FD24C0F62E0B8D10E00F5F1F4F0F731E
:100270001127E02E8C8DE8120CC00FB607FCFACFC8
:10028000E889F989808185FFF5CFCE010E94FF00C2
:10029000F1CF8B8DFE01E80FF11DE35AFF4FF08285
:1002A0000B8FEA89FB898081806207C0EE89FF8914
:1002B0006083E889F98980818064808381E090E0AF
:1002C000DF91CF911F910F91FF90EF900895CF9301
:1002D000DF93EC01888D8823C9F0EA89FB8980814E
:1002E00085FD05C0A889B9898C9186FD0FC00FB620
:1002F00007FCF5CF808185FFF2CFA889B9898C9161
:1003000085FFEDCFCE010E94FF00E7CFDF91CF91B7
:10031000089580E090E0892B29F00E94F50081117A
:100320000C940000089590E0FC01E859FF4F3491CF
:10033000FC01E255FF4F2491FC01E656FF4FE4918A
:10034000EE2309F43BC0332339F1333091F038F414
:100350003130A9F0323001F584B58F7D12C03730CD
:1003600091F03830A1F03430B9F4809180008F7D65
:1003700003C0809180008F77809380000DC084B58A
:100380008F7784BD09C08091B0008F7703C08091C2
:10039000B0008F7D8093B000F0E0EE0FFF1FE458B7
:1003A000FF4FA591B4918FB7F894EC91611103C000
:1003B00020952E2301C02E2B2C938FBF08958E30B5
:1003C00008F08E508770806480937C0080917A0062
:1003D000806480937A0080917A0086FDFCCF8091C2
:1003E00078002091790090E0922B08953FB7F8941F
:1003F0008091A6019091A701A091A801B091A901B7
:1004000026B5A89B05C02F3F19F00196A11DB11D6F
:100410003FBFBA2FA92F982F8827820F911DA11DAA
:10042000B11DBC01CD0142E0660F771F881F991FE7
:100430004A95D1F708958F929F92AF92BF92CF9233
:10044000DF92EF92FF926B017C010E94F6014B015B
:100450005C01C114D104E104F104F1F00E94F60141
:10046000DC01CB0188199909AA09BB09883E934090
:10047000A105B10570F321E0C21AD108E108F10825
:1004800088EE880E83E0981EA11CB11CC114D10413
:10049000E104F10419F7DDCFFF90EF90DF90CF90EA
:1004A000BF90AF909F908F9008952FB7F894609170
:1004B000A2017091A3018091A4019091A5012FBF89
:1004C00008950F931F930E9455026093B401709397
:1004D000B5018093B6019093B701E091AC01F09122
:1004E000AD010484F585E02D8CEA91E0099597FF34
:1004F0001FC00E9455020091B4011091B5012091D6
:10050000B6013091B701DC01CB01801B910BA20B2E
:10051000B30B0091B0011091B1012091B201309163
:10052000B30180179107A207B307B8F28FEF9FEFCF
:100530001F910F910895FF920F931F93CF93DF9315
:1005400000D000D0CDB7DEB70E946102FC0197FD5C
:1005500011C08D32910591F0C0970A9778F0E09123
:10056000AC01F091AD010284F385E02D8CEA91E0BD
:100570000995EACF60E070E0CB014CC020E030E0AC
:10058000A901F12CE130F105F1F0ED32F105C9F0EE
:10059000CF01C0970A97B8F4AAE0B0E00E94020A1F
:1005A0008F01FF0F220B330BDC01CB01800F911F5A
:1005B000A21FB31F9C01AD0120533109410951090C
:1005C00002C0FF24F394E091AC01F091AD010284EC
:1005D000F385E02D8CEA91E029833A834B835C8399
:1005E00009950E946102FC01C09729813A814B81E3
:1005F0005C810A9738F2E130F10521F2FF2041F0E9
:1006000066277727CB01621B730B840B950B02C007
:10061000CA01B9010F900F900F900F90DF91CF9109
:100620001F910F91FF9008950F931F930E94550201
:100630006093B4017093B5018093B6019093B701B4
:10064000E091AC01F091AD010284F385E02D8CEADC
:1006500091E0099597FF1FC00E9455020091B401D7
:100660001091B5012091B6013091B701DC01CB01A9
:10067000801B910BA20BB30B0091B0011091B10143
:100680002091B2013091B30180179107A207B307FF
:10069000B8F28FEF9FEF1F910F91089585ED809332
:1006A000BC008091BC0084FDFCCF10927B010895BA
:1006B00040915501262F30E0240F311D21323105A4
:1006C000DCF420917B012430C9F4FC0180E090E04F
:1006D000861758F4309155012191DC01AD5CBE4F75
:1006E000A30FB11D2C930196F3CF80915501680F94
:1006F0006093550180E0089581E0089582E00895B7
:1007000008958FEF9FEF08958FEF9FEF08958091E9
:10071000320190E09195819591090895CF93DF93EF
:1007200000D0CDB7DEB7CB01642F49835A830E9436
:1007300058034981842F5A81952F0F900F90DF9194
:10074000CF910895CF93DF931F92CDB7DEB7698322
:1007500061E0CE0101960E94580381E090E00F9085
:10076000DF91CF910895089580E090E008950F9370
:100770001F93CF93DF938C01EB01FC01808191816A
:100780000097B1F0688179816115710579F0428136
:1007900053812C813D814217530740F00E94670C22
:1007A0008C819D81F8019583848313C00E94EE0A99
:1007B00088819981F801918380838A819B819383C9
:1007C00082838C819D8195838483198218821B8208
:1007D0001A821D821C82DF91CF911F910F91089583
:1007E000CF93DF93EC0188819981009711F00E94EB
:1007F000EE0A198218821D821C821B821A82DF91E6
:10080000CF910895FC01808191810C94EE0A0F93A1
:100810001F93CF93DF93EC0188819981009729F092
:100820002A813B812617370788F48B016F5F7F4F42
:100830000E94860B009761F0998388831B830A834B
:100840002C813D81232B11F4FC01108281E001C039
:1008500080E0DF91CF911F910F910895EF92FF9269
:100860000F931F93CF93DF93FC0124813581611592
:10087000710511F480E019C041155105A9F07B0103
:10088000EC018A01020F131FB8010E94070488239C
:1008900089F3288139818C819D81B701820F931F53
:1008A0000E94670C1D830C8381E0DF91CF911F9123
:1008B0000F91FF90EF900895EF92FF920F931F9387
:1008C000CF93DF93EC017B018A01BA010E940704F8
:1008D000811104C0CE010E94F00307C01D830C8368
:1008E000B701888199810E94670CCE01DF91CF9179
:1008F0001F910F91FF90EF900895FC0111821082DB
:1009000013821282158214826115710551F0FB0168
:1009100001900020E9F73197AF01461B570B0C946B
:100920005C040895BF92CF92DF92EF92FF920F93F3
:100930001F93CF93DF937C016B01EA018901241798
:10094000350720F48D2FE901042F182F6EE271E096
:10095000C7010E947D04D60114968D919C91159734
:10096000C817D90748F58017910708F48C01D601FC
:10097000ED91FC911197E00FF11FB08010824D9125
:100980005C91BA016C0F7D1F6115710561F0FB016F
:1009900001900020E9F73197AF01461B570BC701C3
:1009A0000E945C0403C0C7010E94F003D601ED91D0
:1009B000FC91E00FF11FB082C701DF91CF911F9131
:1009C0000F91FF90EF90DF90CF90BF9008950E941D
:1009D000500C1F920F920FB60F9211242F933F933A
:1009E0004F935F936F937F938F939F93AF93BF9337
:1009F000EF93FF938CEA91E00E94FF00FF91EF914B
:100A0000BF91AF919F918F917F916F915F914F9126
:100A10003F912F910F900FBE0F901F9018951F922E
:100A20000F920FB60F9211242F938F939F93EF93F2
:100A3000FF93E091BC01F091BD018081E091C20182
:100A4000F091C30182FD12C090818091C5018F5F3A
:100A50008F732091C601821751F0E091C501F0E03B
:100A6000E455FE4F958F8093C50101C08081FF91B1
:100A7000EF919F918F912F910F900FBE0F901F902C
:100A800018951F920F920FB60F9211242F933F9338
:100A90008F939F93AF93BF938091A2019091A301F5
:100AA000A091A401B091A5013091A10123E0230FF1
:100AB0002D3720F40196A11DB11D05C026E8230F96
:100AC0000296A11DB11D2093A1018093A2019093D4
:100AD000A301A093A401B093A5018091A6019091D8
:100AE000A701A091A801B091A9010196A11DB11D76
:100AF0008093A6019093A701A093A801B093A901A8
:100B0000BF91AF919F918F913F912F910F900FBE09
:100B10000F901F9018951F920F920FB60F921124ED
:100B20002F933F934F935F936F937F938F939F93F5
:100B3000AF93BF93EF93FF938091B900887F803686
:100B400009F49CC068F5883209F45BC090F48031E8
:100B500009F454C038F4882309F4F6C0883009F445
:100B60004DC0F6C0883109F44CC0803209F45DC034
:100B7000EFC0803409F468C048F4803309F455C0EC
:100B8000883309F0E5C080937A01D8C0803509F434
:100B90004FC0883509F45DC0883409F0D9C0D6C08B
:100BA000883909F4C7C0A8F4883709F467C038F455
:100BB000883609F463C0803709F460C0C9C088383A
:100BC00009F4B8C0803909F45FC0803809F0C0C0AA
:100BD0005BC0803B09F486C038F4803A09F466C0F3
:100BE000883A09F47FC0B4C0803C09F4A7C0883CAF
:100BF00009F4A4C0883B09F48AC0AAC08091A0016E
:100C000010C090919F0180919E01981770F5E0911E
:100C10009F0181E08E0F80939F01F0E0E258FE4F2C
:100C200080818093BB0085EC86C080937A018EC062
:100C3000E0919F0181E08E0F80939F018091BB0026
:100C4000F0E0E258FE4F808390919F0180919E01D9
:100C50006EC0E0919F0181E08E0F80939F01809193
:100C6000BB00F0E0E258FE4F808380917D0181114E
:100C70006DC081E080937C0184EA61C083E0809351
:100C80007B0110927901CFCF80917901803208F0F9
:100C900051C0E091790181E08E0F809379018091BC
:100CA000BB00F0E0E75AFE4F8083BDCF85EC809318
:100CB000BC0010927B0180917901803230F4E09188
:100CC0007901F0E0E75AFE4F10826091790170E0FF
:100CD000E0915701F091580189E591E00995109252
:100CE000790136C084E080937B0110925601109206
:100CF0005501E0915301F0915401099580915501FE
:100D0000811105C081E08093550110923301E0917B
:100D1000560181E08E0F80935601F0E0ED5CFE4FAE
:100D200080818093BB009091560180915501981766
:100D300008F479CF85E88093BC000AC085EC8093E5
:100D4000BC0010927B0104C010927A010E944E03F5
:100D5000FF91EF91BF91AF919F918F917F916F9193
:100D60005F914F913F912F910F900FBE0F901F9069
:100D70001895CF93DF931092AF011092AE0188EED9
:100D800093E0A0E0B0E08093B0019093B101A09314
:100D9000B201B093B3012AE031E03093AD0120936A
:100DA000AC0125EC30E03093B9012093B80124EC7C
:100DB00030E03093BB012093BA0120EC30E0309357
:100DC000BD012093BC0121EC30E03093BF012093A2
:100DD000BE0122EC30E03093C1012093C00126EC2B
:100DE00030E03093C3012093C2011092C5011092EC
:100DF000C6011092C7011092C80110924C021092C5
:100E00004B0280934D0290934E02A0934F02B093F9
:100E100050028CE191E090934A0280934902E7EB03
:100E2000F0E02491E3EAF0E084918823C1F090E0BF
:100E3000880F991FFC01EA57FF4FC591D491FC011F
:100E4000E458FF4FA591B4919FB7F8948881E22FA1
:100E5000E0958E2388838C91E823EC939FBFE7EB8A
:100E6000F0E0E491E0936902E3EAF0E0E491F0E07D
:100E7000EE0FFF1FE057FF4F8591949190936B0207
:100E800080936A0210927402109276021092750298
:100E9000E4E7F2E0129282E0EC36F807D9F789E64F
:100EA00092E090935C0280935B0210925902109240
:100EB0005A021092550289E08093560281E0809395
:100EC0005702809358021092680210926702DF91D5
:100ED000CF910895CF93DF93CDB7DEB7E6970FB6E6
:100EE000F894DEBF0FBECDBF789484B5826084BD18
:100EF00084B5816084BD85B5826085BD85B581601E
:100F000085BD80916E00816080936E00109281009B
:100F10008091810082608093810080918100816056
:100F20008093810080918000816080938000809117
:100F3000B10084608093B1008091B00081608093A3
:100F4000B00080917A00846080937A0080917A006A
:100F5000826080937A0080917A00816080937A0029
:100F600080917A00806880937A001092C10003E03B
:100F700010E0802FF801E255FF4F9491F801E656FA
:100F8000FF4F2491222399F030E0220F331FF90103
:100F9000EA57FF4FA591B491F901E458FF4F25910D
:100FA00034912FB7F894EC91E92BEC932FBF60E0CC
:100FB0000E9493010F5F1F4F0E301105D1F6E09193
:100FC000BC01F091BD0182E08083E091B801F09115
:100FD000B9011082E091BA01F091BB018FEC8083DE
:100FE0001092C401E091C001F091C10186E08083BC
:100FF000E091BE01F091BF01808180618083E0912A
:10100000BE01F091BF01808188608083E091BE01C4
:10101000F091BF01808180688083E091BE01F091F2
:10102000BF0180818F7D80838091AA019091AB0167
:10103000892B89F561E08DE00E9493016AE570E0FB
:1010400080E090E00E941B020E949B0261307105CB
:1010500049F48091AA019091AB0101969093AB0164
:101060008093AA0160E08DE00E9493016AE570E040
:1010700080E090E00E941B020E949B02613071059B
:1010800099F68091AA019091AB0101969093AB01E2
:101090008093AA01C9CF8E010F5F1F4F6EE271E0EE
:1010A000CE01C1960E947D046EE271E0CE018B9666
:1010B0000E947D046EE271E0CE0185960E947D045F
:1010C0008CEA91E00E94E900892B09F417C16EE2D5
:1010D00071E0C8010E947D040E94140397FD0BC0BB
:1010E0008B8B1C8A41E050E0BE016D5E7F4FC801D2
:1010F0000E942E04F1CFB801CE01C1960E94B70321
:10110000C8010E94020421E030E040E050E0BE014E
:101110006F5C7F4FC8010E949204B801CE018B968C
:101120000E94B703C8010E9402042DA93EA941E014
:1011300050E0BE016F5C7F4FC8010E949204B8016D
:10114000CE0185960E94B703C8010E9402048BA5B8
:101150009CA5009729F00E9491094B015C0103C0F6
:10116000812C912C54018FE00E94DF017C018EE0E4
:101170000E94DF011C8A1B8A1E8A1D8A188E1F8A04
:101180004AE0B8010E94B809F80101900020E9F78F
:101190003197AF01401B510BB801CE0143960E941D
:1011A0005C041A8E198E1C8E1B8E1E8E1D8E4AE0BC
:1011B000B801C7010E94B809F80101900020E9F7C1
:1011C0003197AF01401B510BB801CE0149960E94E7
:1011D0005C041A8219821C821B821E821D82698D08
:1011E0007A8D6115710529F04D8D5E8DC8010E94C3
:1011F0005C0441E050E06AE271E0C8010E942E0404
:10120000882309F48AC04F89588D6B897C89C8016D
:101210000E942E04811103C0C8010E94F00318A28D
:101220001F8E1AA219A21CA21BA269817A816115C4
:10123000710531F04D815E81CE014F960E945C04B4
:10124000C8010E940204CE0149960E940204CE0108
:1012500043960E9402044BA15CA16F8D78A18CEA99
:1012600091E00E948D0042E050E06CE271E08CEA77
:1012700091E00E948D008CEA91E00E94670162E398
:1012800070E080E090E00E941B0289A59AA5892B5E
:1012900089F1EDA0FEA06FE271E0C7010E945E0C33
:1012A00021E0892B09F020E0F7018081882311F1EA
:1012B000F4E08F16910479F085E08816910491F09E
:1012C000E3E08E169104B1F4222311F061E001C035
:1012D00060E083E00DC0222311F061E001C060E016
:1012E00084E006C0222311F061E001C060E085E0E7
:1012F0000E949301CE014F960E940204CE01859672
:101300000E940204CE018B960E940204CE01C19677
:101310000E9402040E948901C1CEC8010E94F0030C
:1013200072CF1F93FC0199278827BC01E894119183
:101330001032E9F3193010F01E30C8F31B3251F0AF
:101340001D3249F4689406C00E94C309610F711DE3
:10135000811D911D119110531A30B0F33EF49095F8
:101360008095709561957F4F8F4F9F4F1F91089586
:10137000BB274A3031F4992322F4BDE29095819540
:101380009F4F0C94D909592F482F372F262F660FBE
:10139000771F881F991F660F771F881F991F620F7D
:1013A000731F841F951F660F771F881F991F08954D
:1013B000BB27FB015527AA27880F991FAA1FA4172F
:1013C00010F0A41B83955051B9F7A05DAA3308F023
:1013D000A95DA193009779F7B111B1931192CB0157
:1013E0000C94F209DC01FC01672F71917723E1F77E
:1013F000329704C07C916D9370836291AE17BF07E2
:10140000C8F308950E94440AA59F900DB49F900DC3
:10141000A49F800D911D112408952F923F924F9209
:101420005F926F927F928F929F92AF92BF92CF9274
:10143000DF92EF92FF920F931F93CF93DF93CDB77D
:10144000DEB7CA1BDB0B0FB6F894DEBF0FBECDBFF5
:1014500009942A88398848885F846E847D848C84C6
:101460009B84AA84B984C884DF80EE80FD800C81CF
:101470001B81AA81B981CE0FD11D0FB6F894DEBFB2
:101480000FBECDBFED010895A29FB001B39FC00173
:10149000A39F700D811D1124911DB29F700D811DA0
:1014A0001124911D0895EE0FFF1F0590F491E02D7A
:1014B0000994CF93DF938230910510F482E090E09D
:1014C000E0917902F0917A0220E030E0C0E0D0E0D3
:1014D000309711F14081518148175907C0F04817E2
:1014E000590761F482819381209719F09B838A8345
:1014F0002BC090937A028093790226C02115310582
:1015000019F04217530718F49A01BE01DF01EF01E9
:101510000280F381E02DDCCF2115310509F1281B74
:10152000390B2430310590F412968D919C911397CC
:101530006115710521F0FB019383828304C09093B0
:101540007A0280937902FD01329644C0FD01E20FD8
:10155000F31F81939193225031092D933C933AC00C
:101560002091770230917802232B41F420910201DF
:10157000309103013093780220937702209100018B
:10158000309101012115310541F42DB73EB740914D
:10159000040150910501241B350BE0917702F09175
:1015A0007802E217F307A0F42E1B3F0B2817390728
:1015B00078F0AC014E5F5F4F2417350748F04E0FAF
:1015C0005F1F50937802409377028193919302C0FA
:1015D000E0E0F0E0CF01DF91CF9108950F931F93EA
:1015E000CF93DF93009709F48CC0FC0132971382EC
:1015F00012820091790210917A020115110581F48D
:1016000020813181820F931F2091770230917802DF
:101610002817390779F5F0937802E093770271C0C3
:10162000D80140E050E0AE17BF0750F412962D915C
:101630003C911397AD012115310509F1D901F3CF83
:101640009D01DA013383228360817181860F971FA8
:101650008217930769F4EC0128813981260F371F1F
:101660002E5F3F4F318320838A819B8193838283C6
:10167000452B29F4F0937A02E093790242C0139645
:10168000FC93EE931297ED01499159919E01240F1D
:10169000351FE217F30771F480819181840F951F44
:1016A000029611969C938E938281938113969C93BC
:1016B0008E931297E0E0F0E0D80112968D919C9104
:1016C0001397009719F0F8018C01F6CF8D919C913A
:1016D00098012E5F3F4F820F931F20917702309128
:1016E00078022817390769F4309729F410927A02A2
:1016F0001092790202C01382128210937802009332
:101700007702DF91CF911F910F910895A0E0B0E093
:10171000ECE8FBE00C94110AEC01009721F4CB01FA
:101720000E94590AB8C0FC01E60FF71F9C01225025
:101730003109E217F30708F4ACC0D9010D911C91EF
:10174000119706171707B0F00530110508F49FC070
:10175000C80104978617970708F499C00250110929
:10176000061B170B019311936D937C93CF010E947D
:10177000EE0A8DC05B01A01AB10A4C01800E911EC9
:10178000A0917902B0917A0240E050E0E12CF12C76
:10179000109709F44AC0A815B905D1F56D907C9051
:1017A0001197630182E0C80ED11CCA14DB0480F1DA
:1017B000A3014A195B096A0182E0C80ED11C129686
:1017C000BC9012971396AC91B5E0CB16D10440F0C3
:1017D000B282A38351834083D9016D937C930AC065
:1017E0000E5F1F4FC301800F911FF901918380830A
:1017F000EB2DFA2FE114F10431F0D7011396FC938D
:10180000EE93129744C0F0937A02E09379023FC0BE
:101810008D919C9111974817590708F4AC017D01EF
:1018200012960D90BC91A02DB3CF8091770290912C
:10183000780288159905E1F446175707C8F4809196
:10184000000190910101009741F48DB79EB740913E
:10185000040150910501841B950BE817F907C8F4A2
:10186000F0937802E0937702F901718360830FC0EF
:10187000CB010E94590A7C01009759F0A801BE01D2
:101880000E94550CCE010E94EE0AC70104C0CE0191
:1018900002C080E090E0CDB7DEB7EEE00C942D0AF8
:1018A00081E090E0F8940C946E0CFB01DC0102C026
:1018B00001900D9241505040D8F70895FB01DC0192
:1018C0008D91019080190110D9F3990B0895FB01B6
:1018D000DC0101900D920020E1F70895F894FFCF0C
:1018E00000007B0280000000000020018D00B80095
:1018F0006701E900C700DB0000000000A2038E03BF
:10190000B40380038703840381033B000D0A003185
:021910000000D5
:00000001FF
