:100000000C9463000C948B000C948B000C948B006C
:100010000C948B000C948B000C948B000C948B0034
:100020000C948B000C948B000C948B000C948B0024
:100030000C948B000C948B000C948B000C948B0014
:100040000C9442050C948B000C9467040C944104AE
:100050000C948B000C948B000C948B000C948B00F4
:100060000C948C050C948B000000000025002800E7
:100070002B0000000000240027002A0000000000E0
:1000800023002600290004040404040404040202DA
:100090000202020203030303030301020408102007
:1000A0004080010204081020010204081020000012
:1000B0000008000201000003040700000000000027
:1000C0000000BA06B90911241FBECFEFD8E0DEBF89
:1000D000CDBF11E0A0E0B1E0EEEDF9E102C0059086
:1000E0000D92A233B107D9F722E0A2E3B1E001C03B
:1000F0001D92A138B207E1F710E0C2E6D0E004C0DB
:100100002197FE010E94C70AC136D107C9F70E9494
:1001100070070C94E20C0C9400000895CF92DF92CB
:10012000EF92FF920F931F93CF93DF936C017A01AD
:100130008B01C0E0D0E0CE15DF0589F0D8016D91CC
:100140008D01D601ED91FC910190F081E02DC60169
:100150000995892B11F47E0102C02196ECCFC701CD
:10016000DF91CF911F910F91FF90EF90DF90CF9093
:1001700008950F931F930E94360560933A01709380
:100180003B0180933C0190933D01E0913201F0915D
:1001900033010484F585E02D82E391E0099597FF12
:1001A0001FC00E94360500913A0110913B01209139
:1001B0003C0130913D01DC01CB01801B910BA20B76
:1001C000B30B009136011091370120913801309125
:1001D000390180179107A207B307B8F28FEF9FEF9D
:1001E0001F910F910895FF920F931F93CF93DF9369
:1001F00000D000D0CDB7DEB70E94B900FC0197FD5A
:1002000011C08D32910591F0C0970A9778F0E09176
:100210003201F09133010284F385E02D82E391E015
:100220000995EACF60E070E0CB014CC020E030E0FF
:10023000A901F12CE130F105F1F0ED32F105C9F041
:10024000CF01C0970A97B8F4AAE0B0E00E944D0A27
:100250008F01FF0F220B330BDC01CB01800F911FAD
:10026000A21FB31F9C01AD0120533109410951095F
:1002700002C0FF24F394E0913201F0913301028433
:10028000F385E02D82E391E029833A834B835C83FD
:1002900009950E94B900FC01C09729813A814B81E0
:1002A0005C810A9738F2E130F10521F2FF2041F03C
:1002B00066277727CB01621B730B840B950B02C05B
:1002C000CA01B9010F900F900F900F90DF91CF915D
:1002D0001F910F91FF9008950F931F930E94360571
:1002E00060933A0170933B0180933C0190933D01F0
:1002F000E0913201F09133010284F385E02D82E335
:1003000091E0099597FF1FC00E94360500913A01C0
:1003100010913B0120913C0130913D01DC01CB016A
:10032000801B910BA20BB30B00913601109137018A
:10033000209138013091390180179107A207B30746
:10034000B8F28FEF9FEF1F910F9108950F931F93B6
:10035000CF93DF938C01EB01FC01808191810097A9
:10036000B1F0688179816115710579F0428153811D
:100370002C813D814217530740F00E94DB0C8C8199
:100380009D81F8019583848313C00E94620B88814C
:100390009981F801918380838A819B8193838283F1
:1003A0008C819D8195838483198218821B821A8295
:1003B0001D821C82DF91CF911F910F910895CF93E1
:1003C000DF93EC0188819981009711F00E94620B04
:1003D000198218821D821C821B821A82DF91CF91A2
:1003E00008950F931F93CF93DF93EC018881998138
:1003F000009729F02A813B812617370788F48B0163
:100400006F5F7F4F0E94FA0B009761F0998388839A
:100410001B830A832C813D81232B11F4FC01108264
:1004200081E001C080E0DF91CF911F910F9108958D
:10043000EF92FF920F931F93CF93DF93FC012481E0
:1004400035816115710511F480E019C04115510520
:10045000A9F07B01EC018A01020F131FB8010E9471
:10046000F101882389F3288139818C819D81B7012D
:10047000820F931F0E94DB0C1D830C8381E0DF91B0
:10048000CF911F910F91FF90EF900895EF92FF92FF
:100490000F931F93CF93DF93EC017B018A01BA0185
:1004A0000E94F101811104C0CE010E94DF0107C04A
:1004B0001D830C83B701888199810E94DB0CCE01DA
:1004C000DF91CF911F910F91FF90EF900895FC0164
:1004D00011821082138212821582148261157105B5
:1004E00051F0FB0101900020E9F73197AF01461B65
:1004F000570B0C9446020895BF92CF92DF92EF9271
:10050000FF920F931F93CF93DF937C016B01EA015E
:1005100089012417350720F48D2FE901042F182FA6
:1005200060E371E0C7010E946702D60114968D91C5
:100530009C911597C817D90748F58017910708F4BB
:100540008C01D601ED91FC911197E00FF11FB08065
:1005500010824D915C91BA016C0F7D1F6115710580
:1005600061F0FB0101900020E9F73197AF01461BD4
:10057000570BC7010E94460203C0C7010E94DF015A
:10058000D601ED91FC91E00FF11FB082C701DF9120
:10059000CF911F910F91FF90EF90DF90CF90BF9080
:1005A0000895FC01808191810C94620BFC01538DB4
:1005B000448D252F30E0842F90E0821B930B54173D
:1005C00010F0CF96089501970895FC01918D828DCA
:1005D000981761F0828DDF01A80FB11D5D968C9197
:1005E000928D9F5F9F73928F90E008958FEF9FEFA2
:1005F0000895FC01918D828D981731F0828DE80F5E
:10060000F11D858D90E008958FEF9FEF0895FC0117
:10061000918D228D892F90E0805C9F4F821B9109E4
:100620008F739927089582E391E00E94070321E0E8
:10063000892B09F420E0822F0895FC01848DDF01CD
:10064000A80FB11DA35ABF4F2C91848D90E0019645
:100650008F739927848FA689B7892C93A089B18934
:100660008C9180648C93938D848D981306C002883E
:10067000F389E02D80818F7D80830895EF92FF9232
:100680000F931F93CF93DF93EC0181E0888F9B8DB5
:100690008C8D981305C0E889F989808185FD24C077
:1006A000F62E0B8D10E00F5F1F4F0F731127E02EFA
:1006B0008C8DE8120CC00FB607FCFACFE889F989D7
:1006C000808185FFF5CFCE010E941D03F1CF8B8D78
:1006D000FE01E80FF11DE35AFF4FF0820B8FEA890C
:1006E000FB898081806207C0EE89FF896083E88989
:1006F000F98980818064808381E090E0DF91CF91EF
:100700001F910F91FF90EF900895CF93DF93EC012D
:10071000888D8823C9F0EA89FB89808185FD05C021
:10072000A889B9898C9186FD0FC00FB607FCF5CF5B
:10073000808185FFF2CFA889B9898C9185FFEDCFA3
:10074000CE010E941D03E7CFDF91CF91089580E095
:1007500090E0892B29F00E94130381110C94000072
:1007600008953FB7F8948091790290917A02A09110
:100770007B02B0917C0226B5A89B05C02F3F19F0E3
:100780000196A11DB11D3FBFBA2FA92F982F882711
:10079000820F911DA11DB11DBC01CD0142E0660F6C
:1007A000771F881F991F4A95D1F7089585ED80938B
:1007B000BC008091BC0084FDFCCF10924E020895D5
:1007C00040912802262F30E0240F311D21323105BF
:1007D000DCF420914E022430C9F4FC0180E090E06A
:1007E000861758F4309128022191DC01AA5FBD4F91
:1007F000A30FB11D2C930196F3CF80912802680FAF
:100800006093280280E0089581E0089582E00895D1
:1008100008958FEF9FEF08958FEF9FEF08958091D8
:10082000050290E09195819591090895CF93DF930A
:1008300000D0CDB7DEB7CB01642F49835A830E9425
:10084000E0034981842F5A81952F0F900F90DF91FB
:10085000CF910895CF93DF931F92CDB7DEB7698311
:1008600061E0CE0101960E94E00381E090E00F90EC
:10087000DF91CF910895089580E090E008950E945F
:10088000C40C1F920F920FB60F9211242F933F9317
:100890004F935F936F937F938F939F93AF93BF9388
:1008A000EF93FF9382E391E00E941D03FF91EF918C
:1008B000BF91AF919F918F917F916F915F914F9178
:1008C0003F912F910F900FBE0F901F9018951F9280
:1008D0000F920FB60F9211242F938F939F93EF9344
:1008E000FF93E0914201F09143018081E091480142
:1008F000F091490182FD12C0908180914B018F5F80
:100900008F7320914C01821751F0E0914B01F0E080
:10091000EE5CFE4F958F80934B0101C08081FF916B
:10092000EF919F918F912F910F900FBE0F901F907D
:10093000189590E0FC01E255FF4F3491FC01E6561A
:10094000FF4F2491FC01EA57FF4FE491EE2309F495
:100950003BC0332339F1333091F038F43130A9F012
:10096000323001F584B58F7D12C0373091F03830C8
:10097000A1F03430B9F4809180008F7D03C0809164
:1009800080008F77809380000DC084B58F7784BD01
:1009900009C08091B0008F7703C08091B0008F7D37
:1009A0008093B000F0E0EE0FFF1FE859FF4FA591D4
:1009B000B4918FB7F894EC91611103C020952E2368
:1009C00001C02E2B2C938FBF08958E3008F08E50CF
:1009D0008770806480937C0080917A00806480932B
:1009E0007A0080917A0086FDFCCF8091780020917A
:1009F000790090E0922B08958F929F92AF92BF92D0
:100A0000CF92DF92EF92FF926B017C010E94B103C3
:100A10004B015C01C114D104E104F104F1F00E9426
:100A2000B103DC01CB0188199909AA09BB09883EE9
:100A30009340A105B10570F321E0C21AD108E10885
:100A4000F10888EE880E83E0981EA11CB11CC11429
:100A5000D104E104F10419F7DDCFFF90EF90DF90AE
:100A6000CF90BF90AF909F908F9008952FB7F8943C
:100A70006091750270917602809177029091780270
:100A80002FBF08951F920F920FB60F9211242F932C
:100A90003F938F939F93AF93BF93809175029091F3
:100AA0007602A0917702B09178023091740223E02F
:100AB000230F2D3720F40196A11DB11D05C026E896
:100AC000230F0296A11DB11D20937402809375021D
:100AD00090937602A0937702B09378028091790286
:100AE00090917A02A0917B02B0917C020196A11DA7
:100AF000B11D8093790290937A02A0937B02B09308
:100B00007C02BF91AF919F918F913F912F910F9058
:100B10000FBE0F901F9018951F920F920FB60F9255
:100B200011242F933F934F935F936F937F938F93F2
:100B30009F93AF93BF93EF93FF938091B900887F0A
:100B4000803609F49CC068F5883209F45BC090F4E3
:100B5000803109F454C038F4882309F4F6C0883091
:100B600009F44DC0F6C0883109F44CC0803209F454
:100B70005DC0EFC0803409F468C048F4803309F4E4
:100B800055C0883309F0E5C080934D02D8C0803548
:100B900009F44FC0883509F45DC0883409F0D9C024
:100BA000D6C0883909F4C7C0A8F4883709F467C0EB
:100BB00038F4883609F463C0803709F460C0C9C0CE
:100BC000883809F4B8C0803909F45FC0803809F06A
:100BD000C0C05BC0803B09F486C038F4803A09F499
:100BE00066C0883A09F47FC0B4C0803C09F4A7C04D
:100BF000883C09F4A4C0883B09F48AC0AAC080914B
:100C0000730210C09091720280917102981770F572
:100C1000E091720281E08E0F80937202F0E0EF5A51
:100C2000FD4F80818093BB0085EC86C080934D0290
:100C30008EC0E091720281E08E0F809372028091EB
:100C4000BB00F0E0EF5AFD4F8083909172028091DB
:100C500071026EC0E091720281E08E0F8093720289
:100C60008091BB00F0E0EF5AFD4F808380915002ED
:100C700081116DC081E080934F0284EA61C083E0FE
:100C800080934E0210924C02CFCF80914C02803262
:100C900008F051C0E0914C0281E08E0F80934C022D
:100CA0008091BB00F0E0E45DFD4F8083BDCF85EC1B
:100CB0008093BC0010924E0280914C02803230F43E
:100CC000E0914C02F0E0E45DFD4F108260914C0237
:100CD00070E0E0912A02F0912B028CE292E00995FB
:100CE00010924C0236C084E080934E02109229028A
:100CF00010922802E0912602F09127020995809136
:100D00002802811105C081E080932802109206021A
:100D1000E091290281E08E0F80932902F0E0EA5FE2
:100D2000FD4F80818093BB00909129028091280221
:100D3000981708F479CF85E88093BC000AC085EC49
:100D40008093BC0010924E0204C010924D020E948B
:100D5000D603FF91EF91BF91AF919F918F917F91BA
:100D60006F915F914F913F912F910F900FBE0F9018
:100D70001F901895CF93DF93109235011092340194
:100D800088EE93E0A0E0B0E08093360190933701C5
:100D9000A0933801B09339012AE031E03093330158
:100DA0002093320125EC30E030933F0120933E0147
:100DB00024EC30E0309341012093400120EC30E0FE
:100DC000309343012093420121EC30E03093450100
:100DD0002093440122EC30E03093470120934601F8
:100DE00026EC30E0309349012093480110924B01EA
:100DF00010924C0110924D0110924E011092FC0184
:100E00001092FB018093FD019093FE01A093FF01DE
:100E1000B09300028CE191E09093FA018093F90184
:100E2000E3EAF0E02491EFE8F0E084918823C1F058
:100E300090E0880F991FFC01EE58FF4FC591D491A7
:100E4000FC01E859FF4FA591B4919FB7F8948881B0
:100E5000E22FE0958E2388838C91E823EC939FBF4B
:100E6000E3EAF0E0E491E093E901EFE8F0E0E491F7
:100E7000F0E0EE0FFF1FE458FF4F8591949190939F
:100E8000EB018093EA011092F4011092F6011092A6
:100E9000F501E4EFF1E0129281E0EC3EF807D9F7BA
:100EA00089EE91E09093DC018093DB011092D901EF
:100EB0001092DA011092D50189E08093D60181E089
:100EC0008093D7018093D8011092E8011092E70136
:100ED00060E371E08FEC91E0DF91CF910C946702B9
:100EE000CF93DF93CDB7DEB7E0970FB6F894DEBFB0
:100EF0000FBECDBF789484B5826084BD84B5816017
:100F000084BD85B5826085BD85B5816085BD8091D4
:100F10006E00816080936E0010928100809181004C
:100F20008260809381008091810081608093810044
:100F3000809180008160809380008091B100846006
:100F40008093B1008091B00081608093B000809167
:100F50007A00846080937A0080917A008260809326
:100F60007A0080917A00816080937A0080917A0083
:100F7000806880937A001092C10003E010E0802F17
:100F8000F801E656FF4F9491F801EA57FF4F24917C
:100F9000222399F030E0220F331FF901EE58FF4F62
:100FA000A591B491F901E859FF4F259134912FB7DC
:100FB000F894EC91E92BEC932FBF60E00E94990428
:100FC0000F5F1F4F0E301105D1F6E0914201F091F5
:100FD000430182E08083E0913E01F0913F01108265
:100FE000E0914001F09141018FEC808310924A0121
:100FF000E0914601F091470186E08083E091440151
:10100000F0914501808180618083E0914401F091FD
:101010004501808188608083E0914401F091450121
:10102000808180688083E0914401F0914501808156
:101030008F7D80838091F7019091F801892B89F54C
:1010400061E08DE00E9499046AE570E080E090E044
:101050000E94FC040E94F3006130710549F4809104
:10106000F7019091F80101969093F8018093F701B0
:1010700060E08DE00E9499046AE570E080E090E015
:101080000E94FC040E94F3006130710599F6809182
:10109000F7019091F80101969093F8018093F70180
:1010A000C9CF8E010F5F1F4FC12C84E0D82EE12CD9
:1010B000F12C60E371E0CE018B960E94670260E341
:1010C00071E0CE0185960E94670260E371E0CE0177
:1010D0004F960E9467028FE00E94E5044C018EE06B
:1010E0000E94E5045C0160E371E0C8010E946702B0
:1010F0000E946C0197FD0BC08B8B1C8A41E050E075
:10110000BE016D5E7F4FC8010E941802F1CFB80189
:10111000CE018B960E94A601C8010E94D10221E057
:1011200030E040E050E0BE01655D7F4FC8010E94A5
:101130007C02B801CE0185960E94A601C8010E94DA
:10114000D1022FA538A941E050E0BE01655D7F4F77
:10115000C8010E947C02B801CE014F960E94A601F0
:10116000C8010E94D1028DA19EA1009729F00E9482
:10117000BD091B012C0103C0212C312C21018BA1A5
:101180009CA1892B09F4E2C06F8C78A06AE271E01F
:10119000C3010E94D20C21E0892B09F020E0F30169
:1011A0008081882309F4D2C0F4E02F163104C1F005
:1011B0002CF4E3E02E16310451F0C8C0F5E02F16F0
:1011C0003104A9F086E028163104C1F0BFC0222303
:1011D00011F061E001C060E083E00E949904B6C0B4
:1011E000222311F061E001C060E084E0F6CF222309
:1011F00011F061E001C060E085E0EFCF22E330E074
:10120000D4010E94C00AA70196010E942E0A29015A
:101210003A0124E630E0D5010E94C00AA7019601F8
:101220000E942E0ADA01C9011C8A1B8A1E8A1D8AA5
:10123000188E1F8A4AE0B8010E94E409F801019063
:101240000020E9F73197AF01401B510BB801CE01E7
:1012500043960E9446021A8E198E1C8E1B8E1E8E7D
:101260001D8E4AE0B801C2010E94E409F801019014
:101270000020E9F73197AF01401B510BB801CE01B7
:1012800049960E9446021A8219821C821B821E8283
:101290001D82698D7A8D6115710531F04D8D5E8DE0
:1012A000C8010E94460203C0C8010E94DF0141E05C
:1012B00050E06CE271E0C8010E941802882309F432
:1012C00054C04F89588D6B897C89C8010E941802CF
:1012D000811103C0C8010E94DF0169817A81611513
:1012E000710539F04D815E818FEC91E00E944602DC
:1012F00004C08FEC91E00E94DF01C8010E94D1027E
:10130000CE0149960E94D102CE0143960E94D1029D
:101310004091D3015091D4016091CF017091D001DF
:1013200082E391E00E948E0042E050E06EE271E0C4
:1013300082E391E00E948E0082E391E00E948503A7
:1013400064E670E080E090E00E94FC04CE014F96DD
:101350000E94D102CE0185960E94D102CE018B96C9
:101360000E94D1020E94A703A4CEC8010E94DF01FF
:10137000A8CF8FEC91E00C94D1021F93FC01992728
:101380008827BC01E89411911032E9F3193010F06C
:101390001E30C8F31B3251F01D3249F4689406C068
:1013A0000E94EF09610F711D811D911D1191105354
:1013B0001A30B0F33EF490958095709561957F4F0B
:1013C0008F4F9F4F1F910895BB274A3031F49923C7
:1013D00022F4BDE2909581959F4F0C94050A592FF8
:1013E000482F372F262F660F771F881F991F660FEC
:1013F000771F881F991F620F731F841F951F660F29
:10140000771F881F991F0895BB27FB015527AA271F
:10141000880F991FAA1FA41710F0A41B8395505181
:10142000B9F7A05DAA3308F0A95DA193009779F7F9
:10143000B111B1931192CB010C941E0ADC01FC0195
:10144000672F71917723E1F7329704C07C916D93F8
:1014500070836291AE17BF07C8F30895052E97FBFE
:101460001EF400940E94450A57FD07D00E948F0A7F
:1014700007FC03D04EF40C94450A509540953095E6
:1014800021953F4F4F4F5F4F0895909580957095F0
:1014900061957F4F8F4F9F4F08950E94B10AA59F7E
:1014A000900DB49F900DA49F800D911D112408955F
:1014B0002F923F924F925F926F927F928F929F9264
:1014C000AF92BF92CF92DF92EF92FF920F931F9352
:1014D000CF93DF93CDB7DEB7CA1BDB0B0FB6F89403
:1014E000DEBF0FBECDBF09942A88398848885F8443
:1014F0006E847D848C849B84AA84B984C884DF80B4
:10150000EE80FD800C811B81AA81B981CE0FD11D97
:101510000FB6F894DEBF0FBECDBFED010895A1E276
:101520001A2EAA1BBB1BFD010DC0AA1FBB1FEE1F5D
:10153000FF1FA217B307E407F50720F0A21BB30BA8
:10154000E40BF50B661F771F881F991F1A9469F724
:1015500060957095809590959B01AC01BD01CF0180
:101560000895A29FB001B39FC001A39F700D811D7C
:101570001124911DB29F700D811D1124911D08959C
:101580000E94B10AB7FF0895821B930B0895EE0FD6
:10159000FF1F0590F491E02D0994CF93DF938230E3
:1015A000910510F482E090E0E0917F02F0918002DA
:1015B00020E030E0C0E0D0E0309711F1408151816F
:1015C00048175907C0F04817590761F48281938181
:1015D000209719F09B838A832BC09093800280937D
:1015E0007F0226C02115310519F04217530718F460
:1015F0009A01BE01DF01EF010280F381E02DDCCF13
:101600002115310509F1281B390B2430310590F4DF
:1016100012968D919C9113976115710521F0FB0134
:101620009383828304C09093800280937F02FD01A4
:10163000329644C0FD01E20FF31F81939193225033
:1016400031092D933C933AC020917D0230917E0266
:10165000232B41F4209102013091030130937E024B
:1016600020937D0220910001309101012115310567
:1016700041F42DB73EB74091040150910501241B60
:10168000350BE0917D02F0917E02E217F307A0F4A2
:101690002E1B3F0B2817390778F0AC014E5F5F4FC8
:1016A0002417350748F04E0F5F1F50937E0240937A
:1016B0007D028193919302C0E0E0F0E0CF01DF91E1
:1016C000CF9108950F931F93CF93DF93009709F461
:1016D0008CC0FC0132971382128200917F0210911C
:1016E00080020115110581F420813181820F931F41
:1016F00020917D0230917E022817390779F5F09309
:101700007E02E0937D0271C0D80140E050E0AE1748
:10171000BF0750F412962D913C911397AD012115FE
:10172000310509F1D901F3CF9D01DA013383228319
:1017300060817181860F971F8217930769F4EC010E
:1017400028813981260F371F2E5F3F4F3183208339
:101750008A819B8193838283452B29F4F0938002B5
:10176000E0937F0242C01396FC93EE931297ED0133
:10177000499159919E01240F351FE217F30771F427
:1017800080819181840F951F029611969C938E9370
:101790008281938113969C938E931297E0E0F0E000
:1017A000D80112968D919C911397009719F0F8012A
:1017B0008C01F6CF8D919C9198012E5F3F4F820F47
:1017C000931F20917D0230917E022817390769F41A
:1017D000309729F41092800210927F0202C0138287
:1017E000128210937E0200937D02DF91CF911F91B0
:1017F0000F910895A0E0B0E0E0E0FCE00C945C0AFA
:10180000EC01009721F4CB010E94CD0AB8C0FC0185
:10181000E60FF71F9C0122503109E217F30708F485
:10182000ACC0D9010D911C91119706171707B0F0A4
:101830000530110508F49FC0C80104978617970763
:1018400008F499C002501109061B170B019311935C
:101850006D937C93CF010E94620B8DC05B01A01A37
:10186000B10A4C01800E911EA0917F02B0918002BE
:1018700040E050E0E12CF12C109709F44AC0A81583
:10188000B905D1F56D907C901197630182E0C80E87
:10189000D11CCA14DB0480F1A3014A195B096A0157
:1018A00082E0C80ED11C1296BC9012971396AC9190
:1018B000B5E0CB16D10440F0B282A38351834083BC
:1018C000D9016D937C930AC00E5F1F4FC301800F37
:1018D000911FF90191838083EB2DFA2FE114F1041C
:1018E00031F0D7011396FC93EE93129744C0F09316
:1018F0008002E0937F023FC08D919C911197481721
:10190000590708F4AC017D0112960D90BC91A02DF1
:10191000B3CF80917D0290917E0288159905E1F404
:1019200046175707C8F48091000190910101009774
:1019300041F48DB79EB74091040150910501841B7D
:10194000950BE817F907C8F4F0937E02E0937D0247
:10195000F901718360830FC0CB010E94CD0A7C0125
:10196000009759F0A801BE010E94C90CCE010E9447
:10197000620BC70104C0CE0102C080E090E0CDB789
:10198000DEB7EEE00C94780A81E090E0F8940C94D5
:10199000E20CFB01DC0102C001900D92415050406D
:1019A000D8F70895FB01DC018D9101908019011099
:1019B000D9F3990B0895FB01DC0101900D920020F1
:1019C000E1F7089510E0C2E6D0E004C0FE010E94F5
:0E19D000C70A2196C336D107C9F7F894FFCF96
:1019DE00000081028000000000003E038E00D6024F
:1019EE0085030703E502F902000000002A0416042D
:1019FE003C0408040F040C04090431003B000D0ADA
:021A0E000000D6
:107E0000112484B714BE81FFF0D085E080938100F7
:107E100082E08093C00088E18093C10086E0809377
:107E2000C20080E18093C4008EE0C9D0259A86E02C
:107E300020E33CEF91E0309385002093840096BBD3
:107E4000B09BFECF1D9AA8958150A9F7CC24DD24C4
:107E500088248394B5E0AB2EA1E19A2EF3E0BF2EE7
:107E6000A2D0813461F49FD0082FAFD0023811F036
:107E7000013811F484E001C083E08DD089C08234E0
:107E800011F484E103C0853419F485E0A6D080C0E4
:107E9000853579F488D0E82EFF2485D0082F10E0AE
:107EA000102F00270E291F29000F111F8ED06801E7
:107EB0006FC0863521F484E090D080E0DECF843638
:107EC00009F040C070D06FD0082F6DD080E0C81688
:107ED00080E7D80618F4F601B7BEE895C0E0D1E017
:107EE00062D089930C17E1F7F0E0CF16F0E7DF06D8
:107EF00018F0F601B7BEE89568D007B600FCFDCFD4
:107F0000A601A0E0B1E02C9130E011968C91119780
:107F100090E0982F8827822B932B1296FA010C0160
:107F200087BEE89511244E5F5F4FF1E0A038BF0790
:107F300051F7F601A7BEE89507B600FCFDCF97BE46
:107F4000E89526C08437B1F42ED02DD0F82E2BD052
:107F50003CD0F601EF2C8F010F5F1F4F84911BD097
:107F6000EA94F801C1F70894C11CD11CFA94CF0C13
:107F7000D11C0EC0853739F428D08EE10CD085E9AC
:107F80000AD08FE07ACF813511F488E018D01DD067
:107F900080E101D065CF982F8091C00085FFFCCF94
:107FA0009093C60008958091C00087FFFCCF809118
:107FB000C00084FD01C0A8958091C6000895E0E648
:107FC000F0E098E1908380830895EDDF803219F02E
:107FD00088E0F5DFFFCF84E1DECF1F93182FE3DFCA
:107FE0001150E9F7F2DF1F91089580E0E8DFEE27F6
:047FF000FF270994CA
:027FFE00040479
:0400000300007E007B
:00000001FF