:100000000C945D000C9485000C9485000C94850084
:100010000C9485000C9485000C9485000C9485004C
:100020000C9485000C9485000C9485000C9485003C
:100030000C9485000C9485000C9485000C9485002C
:100040000C94F5030C9485000C94C3030C949D034D
:100050000C9485000C9485000C9485000C9485000C
:100060000C9485000C94850000000008000201003B
:100070000003040700000000000000000000000072
:10008000250028002B0000000000240027002A0083
:10009000040404040404040402020202020203032E
:1000A0000303030301020408102040800102040836
:1000B0001020010204081020270611241FBECFEFD4
:1000C000D8E0DEBFCDBF21E0AEE1B1E001C01D92BE
:1000D000AC3CB207E1F711E0A0E0B1E0ECEDF1E1FA
:1000E00002C005900D92AE31B107D9F710E0CDE511
:1000F000D0E004C02197FE010E94E106CC35D10773
:10010000C9F70E943F040C94EC080C940000CF92B5
:10011000DF92EF92FF920F931F93CF93DF936C01C7
:100120007A018B01C0E0D0E0CE15DF0581F0D80167
:100130006D918D01D601ED91FC910190F081E02D42
:10014000C6010995892B11F02196EECF7E01C701DA
:10015000DF91CF911F910F91FF90EF90DF90CF90A3
:100160000895CF93DF93FC014481558160817181B3
:100170008BE291E00E948700EC0142E050E068E1F0
:1001800071E08BE291E00E9487008C0F9D1FDF9150
:10019000CF910895089580E090E00895FC01538D7B
:1001A000448D252F30E0842F90E0821B930B541751
:1001B00010F0CF96089501970895FC01918D828DDE
:1001C000981761F0828DDF01A80FB11D5D968C91AB
:1001D000928D9F5F9F73928F90E008958FEF9FEFB6
:1001E00008952FB7F8948091270190912801A0914C
:1001F0002901B0912A012FBF8093330190933401DC
:10020000A0933501B09336018BE291E00E94DD00AE
:1002100097FF26C02FB7F89480912701909128016D
:10022000A0912901B0912A012FBF40913301509133
:1002300034016091350170913601841B950BA60B3A
:10024000B70B40912F0150913001609131017091B5
:10025000320184179507A607B707B0F28FEF9FEF1B
:100260000895FC01918D828D981731F0828DE80FF1
:10027000F11D858D90E008958FEF9FEF08952FB7C2
:10028000F8948091270190912801A0912901B091C3
:100290002A012FBF8093330190933401A09335013D
:1002A000B09336018BE291E00E94310197FF26C0A6
:1002B0002FB7F8948091270190912801A0912901EE
:1002C000B0912A012FBF40913301509134016091C8
:1002D000350170913601841B950BA60BB70B40912D
:1002E0002F015091300160913101709132018417DA
:1002F0009507A607B707B0F28FEF9FEF0895FC01AF
:10030000918D228D892F90E0805C9F4F821B9109F7
:100310008F73992708958BE291E00E947F0121E07D
:10032000892B09F420E0822F0895FC01848DDF01E0
:10033000A80FB11DA35ABF4F2C91848D90E0019658
:100340008F739927848FA689B7892C93A089B18947
:100350008C91837080648C93938D848D981306C0E8
:100360000288F389E02D80818F7D80830895EF924C
:10037000FF920F931F93CF93DF93EC0181E0888F5F
:100380009B8D8C8D981305C0E889F989808185FD46
:1003900026C0F62E0B8D10E00F5F1F4F0F73112735
:1003A000E02E8C8DE8120CC00FB607FCFACFE8895E
:1003B000F989808185FFF5CFCE010E949501F1CFAB
:1003C0008B8DFE01E80FF11DE35AFF4FF0829FB7BE
:1003D000F8940B8FEA89FB89808180620AC09FB7FD
:1003E000F894EE89FF896083E889F98980818370B8
:1003F000806480839FBF81E090E0DF91CF911F9167
:100400000F91FF90EF900895CF93DF93EC01888DCB
:100410008823C9F0EA89FB89808185FD05C0A88908
:10042000B9898C9186FD0FC00FB607FCF5CF80818E
:1004300085FFF2CFA889B9898C9185FFEDCFCE01D8
:100440000E949501E7CFDF91CF91089580E090E081
:10045000892B29F00E948B0181110C9400000895D2
:1004600090E0FC01E859FF4F2491FC01EC55FF4F4F
:100470003491FC01E057FF4FE491EE2309F43CC0B6
:10048000222339F1233091F038F42130A9F02230C1
:1004900001F584B58F7D12C0273091F02830A1F08E
:1004A0002430B9F4809180008F7D03C0809180005A
:1004B0008F77809380000DC084B58F7784BD09C08D
:1004C0008091B0008F7703C08091B0008F7D8093C2
:1004D000B000F0E0EE0FFF1FE458FF4FA591B4917C
:1004E0009FB7F894611104C08C913095382302C0F5
:1004F000EC913E2B3C939FBF08953FB7F8948091B9
:100500001F0190912001A0912101B091220126B5F7
:10051000A89B05C02F3F19F00196A11DB11D3FBF3B
:10052000BA2FA92F982F8827820F911DA11DB11DC9
:10053000BC01CD0142E0660F771F881F991F4A95C5
:10054000D1F708958F929F92AF92BF92CF92DF9290
:10055000EF92FF920E947D024B015C018DE7C82E55
:10056000D12CE12CF12C0E947D02DC01CB018819F9
:100570009909AA09BB09883E9340A105B10598F3E2
:1005800021E0C21AD108E108F10888EE880E83E064
:10059000981EA11CB11CC114D104E104F10419F787
:1005A000FF90EF90DF90CF90BF90AF909F908F9093
:1005B00008950E94CE080F931F93CF93DF93EC0111
:1005C00088819981009729F02A813B812617370776
:1005D00088F48B016F5F7F4F0E940808009761F0DD
:1005E000998388831B830A832C813D81232B11F4FB
:1005F000FC01108281E001C080E0DF91CF911F916A
:100600000F910895EF92FF920F931F93CF93DF9373
:10061000EC017B018A01BA010E94DB022881398149
:1006200081110DC02115310519F0C9010E947F0704
:10063000198218821D821C821B821A8206C01D83A9
:100640000C83B701C9010E94E508CE01DF91CF916B
:100650001F910F91FF90EF900895BF92CF92DF927C
:10066000EF92FF920F931F93CF93DF937C016B0167
:10067000EA0189012417350720F48D2FE901042FA1
:10068000182FD70111961C921E9213961C921E923F
:10069000129715961C921E92149740E050E06AE162
:1006A00071E0C7010E940203F60184819581C81799
:1006B000D907C0F58017910708F48C01D601ED9198
:1006C000FC911197E00FF11FB08010826D917C9129
:1006D0006C0F7D1F6115710561F0FB010190002019
:1006E000E9F73197AF01461B570BC7010E94020380
:1006F00013C0F70180819181009711F00E947F075C
:10070000D70111961C921E9215961C921E92149758
:1007100013961C921E921297D601ED91FC91E00F58
:10072000F11FB082C701DF91CF911F910F91FF9010
:10073000EF90DF90CF90BF9008951F920F920FB669
:100740000F9211242F933F934F935F936F937F9357
:100750008F939F93AF93BF93EF93FF938BE291E0BF
:100760000E949501FF91EF91BF91AF919F918F9161
:100770007F916F915F914F913F912F910F900FBE9D
:100780000F901F9018951F920F920FB60F92112481
:100790002F938F939F93EF93FF93E0913B01F09101
:1007A0003C018081E0914101F091420182FD12C043
:1007B0009081809144018F5F8F7320914501821752
:1007C00051F0E0914401F0E0E55DFE4F958F80939C
:1007D000440101C08081FF91EF919F918F912F91F2
:1007E0000F900FBE0F901F9018951F920F920FB68B
:1007F0000F9211242F933F938F939F93AF93BF93A7
:100800008091270190912801A0912901B0912A019E
:1008100030911E0123E0230F2D3720F40196A11DF6
:10082000B11D05C026E8230F0296A11DB11D20931E
:100830001E018093270190932801A0932901B09372
:100840002A0180911F0190912001A0912101B09176
:1008500022010196A11DB11D80931F0190932001DB
:10086000A0932101B0932201BF91AF919F918F91ED
:100870003F912F910F900FBE0F901F901895CF931F
:10088000DF93CDB7DEB762970FB6F894DEBF0FBE29
:10089000CDBF789484B5826084BD84B5816084BD09
:1008A00085B5826085BD85B5816085BD80916E000E
:1008B000816080936E00109281008091810082603F
:1008C000809381008091810081608093810080917C
:1008D00080008160809380008091B100846080936B
:1008E000B1008091B00081608093B00080917A0067
:1008F000846080937A0080917A00826080937A008D
:1009000080917A00816080937A0080917A0080687B
:1009100080937A001092C10003E010E0802FF8016C
:10092000EC55FF4F9491F801E057FF4F249122239B
:1009300099F030E0220F331FF901EA57FF4FA591DC
:10094000B491F901E458FF4F259134912FB7F894F1
:10095000EC91E92BEC932FBF60E00E9430020F5F17
:100960001F4F0B301105D1F6E0913B01F0913C0196
:1009700082E08083E0913701F09138011082E091AC
:100980003901F0913A018FEC808310924301E0919C
:100990003F01F091400186E08083E0913D01F091BC
:1009A0003E01808180618083E0913D01F0913E01B4
:1009B000808188608083E0913D01F0913E018081DB
:1009C00080688083E0913D01F0913E0180818F7DC0
:1009D000808301E010E08091230190912401892B14
:1009E00009F094C061E08AE00E9430020E94A202F5
:1009F00060E08AE00E9430020E94A2020E943F0151
:100A0000FC0197FD0DC08D32910509F4E3C0C0973C
:100A10000A9708F4DFC08BE291E00E94DD00EECF80
:100A2000C12CD12C7601CA94CD28A9F610932401AB
:100A300000932301D0CF89831A8209891A890F5F15
:100A40001F4FB801CE010D960E94DB02882369F08A
:100A50002D853E8589899A89BE016F5F7F4F820F00
:100A6000931F0E94E5081A8B098B0E94F10097FFE3
:100A7000E2CF21E030E040E050E0BE01635F7F4F15
:100A8000CE0107960E942D0329893A8941E050E062
:100A9000BE01635F7F4FCE0101960E942D03CE0100
:100AA0000D960E94B100CE0107960E94B100CE01C2
:100AB00001960E94B1008F8198850097E1F10E9414
:100AC00054066B017C01CE0107960E94B100CE0155
:100AD00001960E94B100AD80BE8009811A81A114E7
:100AE000B10469F51092260110922501AB28A1F5F9
:100AF00089819A810E947F078F8198850E947F0754
:100B00008D859E850E947F070E9426028BE291E0E0
:100B10000E947F01892BC1F31E861D86188A1F86BD
:100B20001A8A198A40E050E06AE171E0CE010D9620
:100B30000E9402039ACFC12CD12C7601C4CF6BE165
:100B400071E0C8010E94DC08892B61F681E090E029
:100B50009093260180932501F8018081882341F23A
:100B6000F4E0CF16D104A1F085E0C816D10429F134
:100B7000E3E0CE16D10409F0BBCF8091250190911E
:100B80002601019711F461E001C060E083E01FC01D
:100B90008091250190912601019711F461E001C037
:100BA00060E084E00E943002CE0107960E94B1000E
:100BB000CE0101960E94B1009BCF809125019091BA
:100BC0002601019711F461E001C060E085E00E9418
:100BD00030028ECFC12CD12C7601B12CE130F10541
:100BE000E9F0ED32F105C1F0CF01C0970A97B0F4FA
:100BF000AAE0B0E0A70196010E9490066F01FF0FE6
:100C0000EE08FF08C60ED71EE81EF91E80E3C81ABC
:100C1000D108E108F10802C0BB24B3948BE291E053
:100C20000E94DD000E943F01FC01C0970A97B0F2CC
:100C3000E130F10599F2BB2009F4F5CEF094E0948F
:100C4000D094C094C11CD11CE11CF11CECCEEBE291
:100C5000F1E01382128288EE93E0A0E0B0E084839A
:100C60009583A683B7838AE091E09183808385ECA6
:100C700090E09587848784EC90E09787868780EC66
:100C800090E0918B808B81EC90E0938B828B82EC57
:100C900090E0958B848B86EC90E0978B868B118E01
:100CA000128E138E148E08951F93FC0199278827A6
:100CB000BC01E89411911032E9F3193010F01E30A4
:100CC000C8F31B3251F01D3249F4689406C00E94EB
:100CD0007B06610F711D811D911D119110531A30FA
:100CE000B0F33EF490958095709561957F4F8F4F4E
:100CF0009F4F1F910895592F482F372F262F660F8A
:100D0000771F881F991F660F771F881F991F620F13
:100D1000731F841F951F660F771F881F991F0895E3
:100D20000E94D206A59F900DB49F900DA49F800DA8
:100D3000911D112408952F923F924F925F926F92CE
:100D40007F928F929F92AF92BF92CF92DF92EF925B
:100D5000FF920F931F93CF93DF93CDB7DEB7CA1BDC
:100D6000DB0B0FB6F894DEBF0FBECDBF09942A8807
:100D7000398848885F846E847D848C849B84AA84AF
:100D8000B984C884DF80EE80FD800C811B81AA813C
:100D9000B981CE0FD11D0FB6F894DEBF0FBECDBF07
:100DA000ED010895A29FB001B39FC001A39F700DF4
:100DB000811D1124911DB29F700D811D1124911D63
:100DC0000895EE0FFF1F0590F491E02D09940F9305
:100DD0001F93CF93DF938230910510F482E090E06F
:100DE000E091CA01F091CB0120E030E0A0E0B0E05A
:100DF000309719F1408151810281138148175907B9
:100E0000C8F08417950769F4109731F012960C9387
:100E1000129713961C9327C00093CA011093CB011D
:100E200022C02115310519F04217530718F49A0111
:100E3000BD01EF01DF01F801DBCF21153105F9F02C
:100E4000281B390B2430310580F48A819B81611580
:100E5000710521F0FB019383828304C09093CB0141
:100E60008093CA01FE01329644C0FE01E20FF31FD7
:100E70008193919322503109398328833AC020917C
:100E8000C8013091C901232B41F420910201309116
:100E900003013093C9012093C801209100013091D2
:100EA00001012115310541F42DB73EB740910401F0
:100EB00050910501241B350BE091C801F091C90147
:100EC000E217F307A0F42E1B3F0B2817390778F021
:100ED000AC014E5F5F4F2417350748F04E0F5F1F80
:100EE0005093C9014093C8018193919302C0E0E0FF
:100EF000F0E0CF01DF91CF911F910F910895CF9333
:100F0000DF93009709F481C0FC01329713821282AB
:100F1000A091CA01B091CB01109781F42081318159
:100F2000820F931F2091C8013091C90128173907FA
:100F300051F5F093C901E093C80167C0ED0120E0CD
:100F400030E0CE17DF0740F44A815B819E014115F6
:100F50005105F1F0EA01F5CFD383C283408151817D
:100F6000840F951FC817D90759F488819981840F78
:100F7000951F0296918380838A819B8193838283CC
:100F80002115310529F4F093CB01E093CA013DC04E
:100F9000E901FB83EA8349915991C40FD51FEC17EE
:100FA000FD0761F480819181840F951F0296E9010C
:100FB00099838883828193819B838A83E0E0F0E038
:100FC00012968D919C911397009719F0FD01DC0109
:100FD000F7CF8D919C9111979D012E5F3F4F820F0E
:100FE000931F2091C8013091C9012817390769F46E
:100FF000309729F41092CB011092CA0102C01382DB
:101000001282B093C901A093C801DF91CF910895D6
:10101000A0E0B0E0EEE0F8E00C949F06EC01009751
:1010200021F4CB010E94E706B4C0FC01E60FF71FD4
:101030009C0122503109E217F30708F4A8C0D90136
:101040000D911C91119706171707B0F00530110587
:1010500008F49BC0C80104978617970708F495C049
:1010600002501109061B170B019311936D937C938A
:10107000CF010E947F0789C05B01A01AB10A4C0111
:10108000800E911EA091CA01B091CB01612C712CF0
:10109000E12CF12C109709F446C08D919C91119789
:1010A000A815B905B1F56C0142E0C40ED11CCA14F3
:1010B000DB0478F14C018A189B08640142E0C40EFD
:1010C000D11C1296BC9012971396AC91B5E0CB163A
:1010D000D10440F0B282A38391828082D9016D93C2
:1010E0007C9309C00E5F1F4F800F911FF901918300
:1010F0008083EB2DFA2FE114F10431F0D701139620
:10110000FC93EE93129741C0F093CB01E093CA0198
:101110003CC06816790608F43C017D0112960D90DA
:10112000BC91A02DB7CF8091C8019091C9018816BC
:101130009906E1F466167706C8F480910001909153
:101140000101009741F48DB79EB740910401509181
:101150000501841B950BE817F907C8F4F093C90142
:10116000E093C801F901718360830FC0CB010E9435
:10117000E7067C01009759F0A801BE010E94D30840
:10118000CE010E947F07C70104C0CE0102C080E0EB
:1011900090E0CDB7DEB7EEE00C94BB0681E090E0C6
:1011A000F8940C94EC08FB01DC0102C001900D9254
:1011B00041505040D8F70895FB01DC018D9101901A
:1011C00080190110D9F3990B0895FB01DC010190FE
:0C11D0000D920020E1F70895F894FFCF85
:1011DC000000CC01800000000000B7018700CE00A9
:0E11EC0004027F01DD0031010D0A0031000018
:00000001FF
